:100000000C9481050C94BE050C94D4050C94AE059B
:100010000C94AE050C9485720C94AE050C94AE0550
:100020000C94AE050C94AE050C94AE050C94AE0584
:100030000C94AE050C94AE050C94AE050C94AE0574
:100040000C94AE050C9471750C94AE050C94AE0531
:100050000C94AE050C94AE050C94AE050C94AE0554
:100060000C94AE050C94AE050C94FB0A0C94AE05F2
:100070000C94AE050C94AE050C94AE050C94AE0534
:100080000C94AE050C94AE050C94AE050C94AE0524
:100090000C94AE050C94AE050C94AE050C94AE0514
:1000A0000C94AE050C94AE050C94AE050C94AE0504
:1000B0000C94AE050C94AE050C94AE050C94AE05F4
:1000C0000C94AE050C94AE050C94AE050C94AE05E4
:1000D0000C94AE050C94AE050C94AE050C94AE05D4
:1000E0000C94AE05A224A6248926A22EA22E1227A5
:1000F000A22EA927A22EA22EA22EB7277429A22EA5
:10010000AB29A22EFF299B2A0D2B8A2DCF31DF315F
:10011000D331D731DB31DF31F431EE31E231EA3145
:10012000DF31DF31FC310032F831F831F131D731D4
:10013000A2588C588C58A8588C588C588C588C586D
:100140008C588C588C58B058A5588C588C58AC5832
:100150008C589D58AA588C58AE588C589F588F5917
:100160008D598F5997599759975994599759975924
:1001700097599759975997599759875997598B591B
:10018000855997598959A96356645664AD63566475
:100190005664E06356645664E363566456640364CD
:1001A00056645664EB63566456640664566456643B
:1001B0001B64566456643464DE6A206BFF6A9A6B73
:1001C0009E6BA36BA76B316DC76A0C9450560C9451
:1001D000A8580C94330C0C943C5F0C94454B0C9435
:1001E0000A5D0C94A9630C94AF6E0C94A6240C9435
:1001F00001110C94316D0C9486640C94534C0C9446
:10020000AA0B0C94C50F0C949D580C942C3B0C9489
:100210005F190C9418670C9461340C94BB180C94FF
:10022000DA390C94480F0C9451680C9463370C9491
:10023000DF130C94206B0C9476630C94D7310C94E0
:1002400028570C9497590C94381D0C948B590C9486
:100250001C630C9484320C94DD110C948C0E0C9461
:1002600043500C94B8100C948F590C941A070C94AA
:1002700089260C94B5720C9485590C9409310C9410
:100280003B1C0C94F4140C949F580C942C610C940B
:10029000B3080C94F4740C94E11A0C94A76B0C94AE
:1002A00003130C941F200C94E8360C94411C0C94FE
:1002B0008E120C94AA580C94FF6A0C9412140C948D
:1002C000B6380C949E6B0C9494590C94411B0C946E
:1002D00069380C94C76A0C945E0B0C9415350C9419
:1002E000AC580C94420F0C94E34D0C94FD060C9406
:1002F000AE580C947E5E0C94EE360C940C320C943A
:1003000011440C948C580C9474290C94D3310C9493
:10031000AD630C94F4310C949C310C9412270C9422
:100320005F5C0C94B26A0C944C510C94CF310C94D9
:1003300022630C94B7270C94A22E0C9456640C9450
:10034000A5160C94F8310C94A3550C9434640C94B9
:1003500009080C94035E0C9467340C94B80E0C944A
:100360003F220C947E620C9467530C94A2580C9418
:1003700025410C94910E0C94F70F0C944A6E0C943A
:10038000E8680C942F190C9422570C9436720C9434
:10039000B0380C945B210C9489590C94A2240C94D1
:1003A00071150C94CB670C94E2680C94DF310C94BB
:1003B0008D590C94AB290C94E2310C9445330C9478
:1003C000EF470C9400320C949A3B0C94AD300C9493
:1003D000CF330C94A7360C941C710C9417370C94E3
:1003E00053340C9470630C94EB070C94B3100C947E
:1003F0003F080C948A320C948D080C943C130C9496
:100400005B740C945F400C946F540C9482650C9454
:10041000A1570C94A91A0C941D370C94E0630C940A
:10042000E30E0C943F330C9465190C947C650C948A
:100430000F350C944E660C94F1310C9412670C94A9
:10044000045D0C94C1340C9406640C946F380C94C5
:1004500089170C94471B0C9483170C94A03B0C94A5
:10046000A9270C94EE310C940F100C94EB630C94B0
:100470001B640C94DB310C9496310C94332F0C9448
:10048000E2220C94DE070C94E9340C9441140C9491
:10049000BE100C94C15D0C946B100C94E8490C9444
:1004A000A36B0C9482500C94FC310C9456560C9413
:1004B000EF5E0C94FD120C9437230C949A6B0C9401
:1004C00023120C948A2D0C94E90E0C94D7570C949B
:1004D0002E520C94D40C0C94A5580C94DE6A0C94F7
:1004E00087590C94DB1A0C94B5180C94AE100C942C
:1004F00054140C94E2410C9489540C948E1B0C946B
:10050000C2150C949B2A0C94A9550C94FB3F0C9497
:1005100031310C94426F0C94EA310C94B6730C9404
:100520002C600C94A15C0C94AE1B0C94A81B0C9436
:10053000B0580C9403640C9401080C94E3630C947D
:1005400073080C94D33C0C94845E0C942D080C948A
:100550000D2B0C94FF290C9459080C9425461F1C54
:100560001F1E1F1E1F1F1E1F1E1F12145F19910E1C
:100570005414B810B310AE102F194114FD123B1CC7
:10058000E30EF4148317420FC50F01010004160196
:1005900001DB1A28035004160101A81B1201469022
:1005A000A206038E1B12012390A20A03411B2350B3
:1005B0004554534349494155544F535741502E4791
:1005C000454E004155544F535741502E4C53540003
:1005D0002C204352432000436F6465206578656397
:1005E00020617420004D2D572043524320726573C3
:1005F000756C743A20002078782F78782F787820DE
:1006000078783A78783A787820784D0D0053554EBE
:100610002E4D4F4E2E545545535745442E54485554
:10062000524652492E5341542E00FFE20053595373
:1006300054454DA0A0A0A0A0A0A0A0A0A000000094
:1006400000000000000000000DA0FE0DEDC6E53426
:10065000B1FEFF0000000000000A2A04FF660B4FF5
:1006600004FF660000000000030303CB67009A0547
:10067000047E5E000004047E5E009C0505EF5E00C3
:100680009A0505EF5E000304067E5E017F05183CB7
:100690005F00000701045D00360307E26800000305
:1006A00017C15D00000508866400A90109035E000A
:1006B00057040A7E620070040B7E6201E2030C2C78
:1006C0006100DC030C2C6100FF030D2C61000F04A2
:1006D0000E2C610000040F1C63000004101C630159
:1006E00000031170630000041270630000031370B4
:1006F0006300000513706300000314126700000517
:10070000155F5C00F40516A15C000005197C65000E
:100710001B041A4E66000000000000009F9C0300AE
:10072000B0DA04003B970400387E0400301B05005B
:100730000E8B0500309906008102180896C1180931
:10074000692E010081DD07003E391700015A0900BA
:1007500079B90A0169240B01794D0C01BCB20C0175
:1007600072B20C01EDDA0D028D3F0E0247C90E0385
:1007700040F10F047E7310045A75110420291104EE
:10078000E918110504981105F548110556131105CE
:1007900085E81105CA4E1105F6DB1105ABE411051C
:1007A000E56D1105FF301105E746110553221105CE
:1007B0006AC212060C5512065B8213075B241307EC
:1007C0002170130737D5130735F61307C1431400FB
:1007D0007048150025291600A6121900920C080071
:1007E0007D321A000000000000000000DE07010852
:1007F000EB070908EB072D0859083F08EB072D0800
:1008000073083F088D08B3080000FD0600001A07B2
:1008100080204F4B8100532053435241544348455D
:100820004482080994959697989B0103999C02032A
:100830009A022050524F54454354204F4E9D054933
:1008400044204D49534D415443489E9FA0A1A2537B
:10085000594E54415803A7BE0004464F554E44B26A
:10086000070450524553454E54B34F564552464CDB
:100870004F5720494E2007B4000B4C41524745BC0E
:100880000220002006BD000406BF00204558495341
:100890005453C0002054595045204D49534D4154A4
:1008A0004348C10C424C4F434BC2C30A20545241EF
:1008B000434B204F5220534543544F52C60C43489C
:1008C000414E4E454CC744495203C80546554C4C11
:1008D000CA4452495645040159CD0920080ACE425E
:1008E00055464645520B534D414C4CCF494D41471F
:1008F00045200020494E56414C4944E2554E4B4E4E
:100900004F574E204452495645434F4445E3434CCC
:100910004F434B20554E535441424C45FF8046496E
:100920004C458152454144825752495445832045A4
:1009300052524F5284204E4F5420854449534B20ED
:10094000864F50454E875245434F5244885041523E
:10095000544954494F4E208953454C4543544544CE
:100960008A494C4C4547414C8B20544F4F208C4E6C
:100970004F20FF2D6D323536302D61726475696EF2
:100980006F2D6D65676100534432494543205631F0
:100990002E302E306174656E746465616430006160
:1009A000342C3B9A3BA736173763370931963169A8
:1009B000386F383131E9340F35E836B038DA394339
:1009C000363446696C6500464154333200010305F4
:1009D00007090E10121416181C1E44454C5345519D
:1009E00050524755535252454C43424D4449523F51
:1009F0003F3F4E41543431203731203831200101FE
:100A00000000424C4F434B5320465245452E202078
:100A10002020202020202020202020000000010174
:100A200000002020202253595354454D22202020DD
:100A30002020202020202020535953202000010472
:100A40000101000012225344324945432020202056
:100A50002020202020202220494B20324100756E8A
:100A60006B6E6F776E3A0D0A00313238535953541A
:100A7000454D310053595354454D3100756E6B6EE1
:100A80006F776E3A0D0A00130C140F170618040046
:100A9000130D140F1411004E4558540042554620B2
:100AA000455252004E4950504F4E0020554353522C
:100AB00031423A002045494352423A0020454943D9
:100AC00052413A007364636172645F696E74657267
:100AD000666163655F696E697428293A2045494DEE
:100AE000534B000D0A73643269656320312E302E3A
:100AF000306174656E7464656164302058585820A4
:100B0000230011241FBECFEFD1E2DEBFCDBF00E036
:100B10000CBF14BE0FB6F894A89580916000886150
:100B200080936000109260000FBE12E0A0E0B2E07F
:100B3000E6E0F0EF00E00BBF02C007900D92A2329A
:100B4000B107D9F72FE0A2E2B2E001C01D92A533B0
:100B5000B207E1F70E947F6D0C9401780C940000BD
:100B600028E039E040E8880F660F08F4842787FB07
:100B70000EF483272A95B9F78F7708952F932FB70F
:100B80002F933F938F930F92489907C02091330E74
:100B9000223011F484D101C0529A0F908F913F916D
:100BA0002F912FBF2F9118952F932FB72F933F93EE
:100BB0008F930F92499906C02091330E213011F482
:100BC00056D100C00F908F913F912F912FBF2F9141
:100BD0001895000000002A95F1F708950000089587
:100BE000489BFECF08954899FECF0895F894FC01E4
:100BF0008827992751985298489B529A499BFCCF35
:100C00002AE2E8DF09B002FA85F901FA84F92EE157
:100C1000E0DF09B002FA87F901FA86F929E1DADFA3
:100C200009B002FA81F901FA83F92EE1D2DF09B0A5
:100C300002FA80F901FA82F92EE1CBDF39B12DE019
:100C4000C9DF529A28E1C6DF8095308378940895F1
:100C50003AB1307F00FA31F901FA32F9069406947C
:100C60003AB90895F89453E0442309F054604F775B
:100C7000662321F06AB1607F646003C06AB1607F5F
:100C8000626052985198AADF082E009489B187704B
:100C90008517E1F38170B9F022E19DDFD9DF23E10F
:100CA0009ADFD6DF25E195DFD3DF23E194DFD0DFC4
:100CB000442349F428E18DDF6AB990DF89B180FFD0
:100CC00002C082FDFBCF80958170789408954A9987
:100CD000FECF80952AB1207F2AB94A9BFECF7EDFC6
:100CE00044E03AB1307F87FB31F986FB32F9880F57
:100CF000880F25E46FDF3AB971DF4A9591F72FE34A
:100D00006ADF2AB1207F22602AB908954A99FECF6E
:100D10002AB1207F2AB9FC014A9BFECF2BE05BDF82
:100D2000019044E000942CE155DF3AB1307F07FA9E
:100D300031F906FA32F9000C000C2AE34ADF3AB91D
:100D40002AE049DF4A9589F727E143DF6A9541F7B1
:100D50002BE141DF2AB1207F22602AB908953AB100
:100D6000307F00FA31F901FA32F93AB90694069463
:100D7000089539B132FB80F931FB82F90895519A17
:100D8000489B07C04A99FCCF5198489B02C04A9B98
:100D9000FCCF0895F894FC01519A29E11CDF54E03E
:100DA0000190009444E0DBDF27E114DF4A95D9F796
:100DB00015DF00C05A95A1F73AB1307F3AB978945F
:100DC0000895F894882728E105DF5298499BFECFC3
:100DD00029E201DFCEDF880F2CE1FDDECADF82953C
:100DE000869529E1F8DEC5DF880F24E1F4DEC1DF56
:100DF000529A7894809599270895F894082E5298DD
:100E00004999FECF499BFECF2FE1E3DEA8DF2DE01D
:100E1000E0DEA5DF2DE0DDDEA2DF2DE0DADE9FDF04
:100E200020E1D7DE5198529AD9DE89B18095817040
:100E300078940895F894082E52984999FECF499BCA
:100E4000FECF2FE1C6DE8BDF23E1C5DE88DF23E1A5
:100E5000C2DE85DF23E1BFDE82DF20E1BADE51980A
:100E6000529ABCDE89B1809581707894089506D03D
:100E70008093390E03D08093360E089524E049996B
:100E8000FECF880F39B132FB80F9499BFECF880F26
:100E900039B132FB80F92A9591F78095089506D0F3
:100EA0008093390E03D08093360E089522E0829508
:100EB000869599DE5EDF880F93DE5BDF2A95B9F7B2
:100EC00080950895082E009422E049DF8CDE47DFEC
:100ED00087DE2A95D1F70895F8949FEF88274FDF92
:100EE000489B14C02EE176DE44DF880F24E173DED8
:100EF00040DF829586952EE16DDE3BDF880F24E191
:100F00006ADE37DF23E367DE9927809578940895BA
:100F1000F894529A489B16C04999FCCF5298489B26
:100F200011C0499BFCCF082E009484E02EE053DED4
:100F30002CE04FDE14DF8A95D9F725E14BDE51987E
:100F400052984CDE7894089507FA31F905FA32F98F
:100F50003AB908955298519841DE3AB1307F489B92
:100F600017C04A9BFCCF082E25E134DEEDDF000CD4
:100F700024E131DEE9DF8295082E23E12ADEE4DF79
:100F8000000C24E128DEE0DF23E325DE8827089536
:100F900081E008958827499BFECF4999FECF25E23D
:100FA0001ADE39B131FB83F932FB84F921E212DE1A
:100FB00039B131FB85F932FB86F90895EBDF2EE17B
:100FC00008DED7DE880F24E206DED3DE2BE103DE67
:100FD000809599270895DEDF22E1FBDDCADE880FC8
:100FE00026E1F7DDC6DE2BE1F6DD80959927089531
:100FF00051985298F3DD4999FECF3AB1307F032ED4
:101000000895F6DF83FB31F981FB32F929E2E3DD54
:1010100007C0EEDF83FB31F981FB32F921E1D9DD35
:101020003AB9302D82FB31F980FB32F926E1D2DD6D
:101030003AB98095302D84FB31F985FB32F928E1EE
:10104000C8DD3AB9302D86FB31F987FB32F92BE147
:10105000C0DD3AB928E3BEDD08958095C9DF082ECA
:101060002AE0B8DD7CDE2BE0B6DD79DE23E1B3DDFE
:1010700076DE20E1AFDD73DE2DE1ABDD0895B8DF74
:1010800007D082952BE0A6DD03D028E3A3DD0895E9
:10109000302D83FB31F981FB32F920E19ADD3AB939
:1010A000302D82FB31F980FB32F921E294DD3AB92F
:1010B00008958827499BFECF4999FECF26E289DD16
:1010C00058DE880F24E187DD54DE8295869521E283
:1010D00082DD4FDE880F2CE17EDD4BDE23E37BDDFE
:1010E0009927809508958827499BFECF4999FECF7F
:1010F00029E270DD3EDE880F26E16BDD3ADE829567
:10110000869526E267DD35DE880F24E264DD31DE78
:1011100023E361DD9927809508958827499BFECFB9
:101120004999FECF25E257DD39B131FB80F932FB19
:1011300081F929E14FDD39B131FB82F932FB83F9C5
:1011400029E148DD39B131FB84F932FB85F929E128
:1011500041DD39B131FB86F932FB87F92DE139DD0B
:10116000809599270895809543DF082E2AE032DD87
:10117000F6DD2DE02EDDF3DD25E12BDDF0DD25E1D3
:1011800028DDEDDD23E227DD0895F8948095082E13
:1011900051984A9BFECF27E01CDDE1DD2DE019DDF3
:1011A000DEDD2DE016DDDBDD2DE013DDD8DD21E118
:1011B00010DD5298519A78940895F89488275198A0
:1011C0004A99FECF4A9BFECF2CE104DDD2DD880F89
:1011D00024E101DDCEDD8295869523E2FADCC9DDCE
:1011E000880F24E1F8DCC5DD28E0F5DC519A78941D
:1011F000809599270895F894082E51985298499B04
:10120000FECF22E1E7DCABDD2DE0E3DCA8DD2DE065
:10121000E0DCA5DD2DE0DDDCA2DD28E0DBDC5198A3
:10122000529A2DE0D6DC7894089582E085BD83EC57
:1012300099E0909389008093880010928500109225
:101240008400109280008BE080938100EFE6F0E054
:101250008081826080830895809122028F5F8093D5
:101260002202809122028436A9F48091000290919A
:101270000102A0910202B09103020196A11DB11DCD
:101280008093000290930102A0930202B0930302A4
:101290001092220208958F929F92AF92BF92CF92A6
:1012A000DF92EF92FF92CF93DF93EC01F89460917D
:1012B00000027091010280910202909103027894E1
:1012C0002CE3C22ED12CE12CF12CA70196010E9417
:1012D000C5766883CA01B901A70196010E94C57647
:1012E0006983CA01B90128E130E040E050E00E9482
:1012F000C5766A8369017A01CA01B9016C5F7F4FC3
:101300008F4F9F4F27E030E040E050E00E94C576CD
:101310006E8322EB37E0C90183709927892B81F412
:10132000C90164E670E00E949D76892B71F5C901C0
:1013300060E971E00E949D76892B09F46DC00CC0B4
:101340008DE6C81681E0D806E104F10428F18DE6A7
:1013500091E0A0E0B0E012C06DE6C61661E0D606EE
:10136000E104F104C8F0C90160E971E00E949D76D2
:10137000892B69F78EE691E0A0E0B0E0C81AD90A9F
:10138000EA0AFB0A2F5F3F4FC6CF8EE6C81681E000
:10139000D806E104F10470F72C562D83822F64E601
:1013A0000E949176392F822F90E060E971E00E94CF
:1013B000B17640E050E0FA01E25AFA4F8490912C65
:1013C000A12CB12CC814D904EA04FB04B8F0E491B0
:1013D000CE1AD108E108F1084130510561F4622FBD
:1013E000637049F4311102C0009729F461E0C61A14
:1013F000D108E108F1084F5F5F4FDDCF4C83C39404
:10140000CB82DF91CF91FF90EF90DF90CF90BF9094
:10141000AF909F908F9008956EE6C61661E0D60655
:10142000E104F10408F09FCFB7CF8F929F92AF9263
:10143000BF92CF92DF92EF92FF921F93CF93DF93F1
:10144000EC018C812D8130E02459384F1FEF180FAB
:1014500021F41BE0180F21503109C880D12CE12C58
:10146000F12C80E8C81A80E4D80A8EE4E80A89E7FB
:10147000F80AF901F695E795F695E795C90160E94F
:1014800071E00E949D76E60FF71F8B81E80FF11D3A
:10149000C90164E670E00E949D76E61BF70B4FE6FB
:1014A00051E0149FC001159F900D11246CE070E075
:1014B0000E94B176E60FF71FADE6B1E00E94EF762D
:1014C0009B01AC012E0F3F1F411D511DA8E1B0E053
:1014D0000E94FE762A814B015C01820E911CA11CA8
:1014E000B11CA5019401ACE3B0E00E94FE76298115
:1014F0004B015C01820E911CA11CB11CA501940141
:101500000E94FE76C60ED71EE81EF91EF894C09201
:101510000002D0920102E0920202F092030278945B
:10152000DF91CF911F91FF90EF90DF90CF90BF9010
:10153000AF909F908F90089582E08093280F089538
:101540001DBC811102C080E501C083E58CBD0895FA
:1015500095B1907F9B6095B994B1907F976094B955
:101560001DBC811102C080E501C083E58CBD8DB535
:101570008EB508958EBD0DB407FEFDCF8EB50895CE
:101580008FEF8EBD0DB407FEFDCF8EB50895680FA9
:10159000791F8617970789F0411103C0FC0120814C
:1015A00001C02FEF2EBD0DB407FEFDCF2EB5442395
:1015B00011F0FC0120830196ECCF089585B7806877
:1015C00085BF85BF91E080E80FB6F89480936100F5
:1015D000909361000FBE089583B7817F83BF83B767
:1015E000816083BF089588950895F894E0E0F0E065
:1015F0001995789408951F920F920FB60F921124A7
:101600000BB60F922F933F938F939F93EF93FF937C
:10161000209125023091260280912302909124028C
:101620002817390719F1E0912502F0912602E95DAA
:10163000FD4F80818093C600809125029091260203
:1016400001969927909326028093250220912502E6
:1016500030912602809123029091240228173907A5
:1016600029F48091C1008F7D8093C100FF91EF919B
:101670009F918F913F912F910F900BBE0F900FBEB6
:101680000F901F90189520912302309124022F5F14
:101690003F4F3327E1ECF0E090819F7D9083A09154
:1016A0002302B0912402A95DBD4F8C933093240294
:1016B000209323028081806280830895CF93C82F76
:1016C0008A3019F48DE00E94430B8C2F0E94430B4B
:1016D00080E090E0CF910895CF93C82F82958F70CE
:1016E0008A3010F4805D01C0895A0E94430B8C2F10
:1016F0008F708A3010F4805D01C0895A0E94430BBC
:10170000CF910895209125023091260280912302E5
:101710009091240228173907A9F70895CF93DF93F2
:10172000FC018491EF012196882321F00E94430B54
:10173000FE01F7CFDF91CF9108958DE00E94430B1A
:101740008AE00E94430B0895A0E0B0E0EAEAFBE0E3
:101750000C940F775B016A018C01060F171FC0E024
:10176000D0E0CE018A0D9B1DCC15DD0508F059C0D7
:10177000892F0E946C0B8C2F8A0D0E946C0B8CE7BA
:101780000E94430B80E20E94430B480180E1880ED7
:10179000911C7801CE01801B910B8E0D9F1D8C1525
:1017A0009D0528F4F70180810E946C0B06C080E241
:1017B0000E94430B80E20E94430B80E20E94430B95
:1017C000FFEFEF1AFF0AE814F90421F78CE70E94F3
:1017D000430BE12CF12CC7018C0F9D1F8C159D052F
:1017E00078F448018FEF881A980AF801808190EE0A
:1017F000980F9F3508F08EE20E94430B840103C0CE
:1018000080E20E94430BFFEFEF1AFF0A80E1E81627
:10181000F10409F78CE70E94430B0E949D0B609630
:10182000A0CFCDB7DEB7ECE00C942B771092C500BB
:1018300088E08093C40082E08093C00088E18093B8
:10184000C10086E08093C20084E092E09093320F62
:101850008093310F109226021092250210922402DA
:1018600010922302089580E00895CF93DF9390E3D0
:10187000899FF0011124DF01AE55B44F8C9180FD9A
:1018800015C0E856F44F9F012E5F3F4F8EE2E901ED
:1018900019928A95E9F78C9181608C9384E6848310
:1018A00083E39CE096878587908B8787DF91CF9134
:1018B0000895E8E9FBE080E591E0DF019C011D92DD
:1018C00021503040E1F787E293E09183808387E203
:1018D00094E091AB80AB87E295E09093F90B809315
:1018E000F80B87E296E09093290C8093280C87E20E
:1018F00097E09093590C8093580C87E298E090936E
:10190000890C8093880C8EEC9DE09093B90C8093A9
:10191000B80C8FE08093BC0CE2ECFCE080818D6021
:10192000806280838DEA90E39093C60C8093C50C0F
:1019300083E39CE09093C80C8093C70C0895CF93E9
:10194000DF9380E090E020E3289FE001299FD00D05
:101950001124FE01EE55F44F208120FD06C00E94A7
:10196000350CCE018856944F09C0019686309105FA
:1019700051F786E40E94A83080E090E0DF91CF919B
:1019800008950E949F0C009741F0FC011482209161
:10199000090D2F5F2093090D11980895A0E0B0E084
:1019A000E4EDFCE00C941377182F20E030E000E029
:1019B00090E080E3829FF001839FF00D1124EE55AB
:1019C000F44F808180FD07C0911101C0022F9F5FFD
:1019D000911302C008C090E02F5F3F4F26303105C1
:1019E00041F7911750F080E3089FE0011124C6559C
:1019F000D44FE02EE10EF02E06C086E40E94A830FF
:101A000080E090E037C0C02ED12CFE14E9F08F2D7D
:101A10000E94350C8091090D8F5F8093090DFE01A6
:101A20003E971082CE014E969C838B8320E32C9DA3
:101A3000C0012D9D900D11248856944F9A8389835F
:101A40001883F394E096DFCF1198C601810F911DA2
:101A5000019720E3289FF001299FF00D1124E856FB
:101A6000F44F168A158A2C9DC0012D9D900D1124CE
:101A70008856944FCDB7DEB7E8E00C942F77FC0181
:101A8000892BC1F024812F30A9F0928590FF12C0DC
:101A90009E7F928794FF05C08091090D80518093AD
:101AA000090D243628F48091090D81508093090D89
:101AB0000E946F6D0895CF93DF93EC01EF85F88955
:101AC0001995CE010E943F0DDF91CF910895EF92BD
:101AD000FF920F931F93CF93DF93F82EC8E9DBE0BB
:101AE00000E010E0E12C80E3809FF001819FF00D89
:101AF0001124EE55F44F808180FF27C0F1FC03C014
:101B00008C81843610F5F2FC0BC080E3809FF001DD
:101B1000819FF00D1124EE55F44F808186FD15C094
:101B2000F0FE10C0E1100BC0EF85F889CE011995C9
:101B300021E030E0811105C020E030E002C021E06A
:101B400030E0E22ECE010E943F0D0F5F1F4FE09666
:101B50000630110541F68E2DCDB7DEB7E6E00C94C8
:101B60003177ECE9FBE040E050E090E3949F900196
:101B7000959F300D1124D901AE55B44F9C9190FF23
:101B800007C09081981304C0C9018856944F0895E6
:101B90004F5F5F4FF0964730510539F780E090E096
:101BA0000895FC01928594FD08C090619287809110
:101BB000090D805F8093090D13980895FC019285AB
:101BC00094FF0BC09F7E92878091090D8051809376
:101BD000090D82958F7009F4139A08955FEF560FDF
:101BE0002BE5829FC0011124FC01EE53F14F2081AF
:101BF0002F77842F90E0213009F442C02430D1F1B6
:101C0000533228F05CED560F2BEA32E002C020E0A0
:101C100030E0513130F445E1549F800D911D112485
:101C200033C0652F70E0583158F461517109E3E118
:101C3000E69FA001E79F500D11244B595E4F17C03E
:101C40005E3158F468517109E2E1E69FA001E79F17
:101C5000500D112446515E4F0AC06E517109E1E1E9
:101C6000E69FA001E79F500D11244A5A5D4F840F53
:101C7000951F0AC028E2529F800D911D11240895DE
:101C8000252F30E0322F2227820F931F08950E94C4
:101C9000EE0DA0E0B0E06627782F892F9A2F0895E7
:101CA0002BE5829FC0011124FC01EE53F14F80818E
:101CB0008F77813019F0843081F003C080E091E0AB
:101CC0000895643208F06352623150F0693158F07F
:101CD0006F3160F081E190E0089588E290E008952E
:101CE00085E190E0089583E190E0089582E190E03D
:101CF0000895E0912A09F0912B090190F081E02DDF
:101D0000828380958383DB018C91848311968C91EF
:101D1000858380EC868308958FE10E94A83081E05E
:101D200008958FE10E94A8300895EF92FF920F93DB
:101D30001F93CF93DF93F82EE90180E091E0F90142
:101D40009C01119221503040E1F78FEF89838F2D54
:101D50000E94470EAB01BC01E12C00E011E09E01A6
:101D60008F2D0E94093DCDB7DEB7E6E00C943177A8
:101D7000EF92FF920F931F93CF93DF93EC019A851D
:101D8000892F827091FF1AC0F9888091700EF81621
:101D9000A0F44B896A898F2D0E94470EAB01BC01CC
:101DA00028813981EE24E39400E011E08F2D0E9418
:101DB000093D9A859D7F9A8701C080E0CDB7DEB747
:101DC000E6E00C943177A2E0B0E0E9EEFEE00C949E
:101DD0001377FC01DB018C91808315966C9115972C
:101DE000618316964C91169742831382CC908BE5B3
:101DF000C89ED0011124AE53B14FDC9081E0D812BF
:101E000015C07F018C2D0E94470EAB01BC0102E082
:101E100010E09E012F5F3F4F8C2D0E94CD3C811121
:101E200006C08981F70181838A818283D12C8D2D1F
:101E30002296E8E00C942F77FF920F931F93CF9395
:101E4000DF93F82EEB01498168810E94470E2A81B9
:101E500030E2239FA00111248A01550F220B330B7E
:101E6000AB01BC01400F511F621F731F00E210E065
:101E700028EE3CE08F2D0E94CD3CCDB7DEB7E5E0EB
:101E80000C943277A2E0B0E0E8E4FFE00C94137722
:101E90007C01FC01C0808BE5C89EF0011124EE534B
:101EA000F14FD080E1E0DE1621F0C7010E94BF3C77
:101EB0002BC0FB018081811104C0F701D582D6823D
:101EC00036C08F3531F5FB018181811122C0F701C8
:101ED000468165818C2D0E94470EAB01BC014E5D91
:101EE0005F4F6F4F7F4F02E010E09E012F5F3F4F2B
:101EF0008C2D0E94CD3C81111BC08981F70181117D
:101F000005C080810E948B3CD82E12C085838A81B7
:101F10000DC0645E7F4F8C2D0E941C0F811108C084
:101F20008091EB0CF70185838091EC0C8683D12C9A
:101F30008D2D2296E8E00C942F77EF92FF920F936D
:101F40001F93CF93DF93F82EEB01E42E4981688134
:101F50000E94470E0A8120E2029F80011124012E77
:101F6000000C220B330BAB01BC01400F511F621F51
:101F7000731F00E210E028EE3CE08F2D0E94093D27
:101F8000CDB7DEB7E6E00C943177EF92FF920F9376
:101F90001F93CF93DF937C018A01EB016C96BE0106
:101FA000FC0180810E941C0F811116C040E150E0AD
:101FB00060EA70E08DEE9CE00E949377F801ADEE50
:101FC000BCE08191882311F08D93FBCF41E0BE01ED
:101FD000F70180810E949D0FCDB7DEB7E6E00C943B
:101FE0003177A7E0B0E0E7EFFFE00C941977CE017E
:101FF00001960E944B09E8EEFCE08E8164E60E94A7
:102000009176918F8D818F5F828F8C81838F8B8171
:10201000848F8A81858F2796E2E00C943577EF9242
:10202000FF920F931F93CF93DF93EC01E881F98127
:102030001082E881F9818A8181836D894E898F8937
:10204000988D0196988F8F8B611102C011E037C077
:10205000FC888F2D0E94470EAB01BC01288139817D
:10206000EE24E39400E011E08F2D0E94093D8111E0
:10207000EDCF8E010F5E1F4FB8018C890E941C0F9F
:102080008111E4CF8091EA0C80688093EA0C8F89FB
:102090008093060D8F89988D9093070D0E94F10F04
:1020A00041E0B8018C890E949D0F182F8111CECF7D
:1020B00083E39CE0988B8F87CE010E943F0D812F98
:1020C000CDB7DEB7E6E00C943177A0E0B0E0EBE608
:1020D000F0E10C941277FC017B01B42EC22FD08169
:1020E000CD2ED12C8BE5D89FD0011124AE53B14F0A
:1020F0008C91813011F4468101C040E065818D2FC3
:102100000E94470E0C2F10E02BE52C9DF0012D9D19
:10211000F00D1124ED53F14FEB0DF11D2081AB01BA
:10212000BC01420F511D611D711D97018D2F0E9431
:10213000CD3C81110DC09FEF9C0FF701E90FF11D00
:102140002081203A11F420E220839150B0F701C0A1
:1021500081E0CDB7DEB7E9E00C942E7725E044E0CE
:102160000E946510089520E143E00E9465100895E3
:10217000A8E0B0E0EEEBF0E10C9415777B019BE575
:10218000899FF0011124DF01AE53B14F9C91913032
:1021900071F400E110E09B0144E051E060E070E088
:1021A00098870E94CD3C9885882399F01FC0898329
:1021B000E456F14F86E0DE01129601900D928A9569
:1021C000E1F7CE0101960E94B310882311F091E04F
:1021D0000DC0F701108A3F96EE15FF0531F08081A2
:1021E000803219F410823197F7CF90E0892F28962A
:1021F000E6E00C943177A0E0B0E0E1E0F1E10C948E
:102200001377C82E79018BE5C89EF0011124EE5397
:10221000F14F80818F77833029F08430E9F081306D
:1022200089F42AC0643270F041110AC070E064522F
:102230007109C62FCC0FC60FD0E025E3D22E27C0E0
:10224000C9EB05C0C1E04111C0E0660F660FC60FC3
:10225000D0E092E1D92E1BC0693208F04FC0D1E026
:10226000C1E04111C0E0C65F862F880F680F660F7E
:10227000C60F88E2D82E0BC0D62FD695D695D69508
:10228000DE5FC62FC295CC0FC07EDD24D394A09113
:102290002A09B0912B0951968C9151978C110AC043
:1022A00052969C9152979D1105C053969C915397BD
:1022B0009D17B9F0E0912809F0912909309709F1AB
:1022C000F0932B09E0932A09B0932909A0932809D8
:1022D00081898C1139C082898D1136C083898D1313
:1022E00033C0E0912A09F0912B09808191818C0FF4
:1022F000911DF7019183808380E054C06852D2E041
:10230000AFCF8F3F09F10E949F0CFC0190932909E8
:1023100080932809892B09F441C085E684838FEFD7
:10232000818B88EB9EE0908B878782858064828793
:1023300080912A0990912B09F0932B09E0932A09A7
:10234000909329098093280980912A0990912B095B
:10235000DC011F96ED91FC915097199581111CC0DD
:102360004D2F6D2D8C2D0E94470EAB01BC01E091CD
:102370002A09F0912B092081318100E011E08C2D98
:102380000E94CD3C81110EC0E0912A09F0912B09E9
:10239000C18AD28AD38BA5CF81E004C080E00E949D
:1023A000A830D2CFCDB7DEB7E8E00C942F77A2E00B
:1023B000B0E0EDEDF1E10C941777182F042F1A829D
:1023C00019829E012F5F3F4F40E00E94FB10811158
:1023D0002FC08BE5189FF0011124EE53F14F30818F
:1023E000202F26952695269589819A810770FC01D4
:1023F000E20FF11D313091F42081822F90E020E82E
:1024000030E0002E02C0359527950A94E2F7282384
:10241000392381E0232B69F480E00BC0808190E0B8
:10242000002E02C0959587950A94E2F7817001C04D
:102430008FEF2296E4E00C943377A2E0B0E0E3E281
:10244000F2E10C941677082FF62E142F0E94D71164
:1024500087FF02C081E058C0811102C080E054C0F3
:102460009E012F5F3F4F40E06F2D802F0E94FB1099
:102470008111F0CFE0912A09F0912B0992859260A9
:1024800092879BE5099FF0011124EE53F14F2081C3
:10249000912F969596959695E981FA811770E90F97
:1024A000F11D213069F420E830E0012E02C035959D
:1024B00027950A94E2F7209590812923208324C050
:1024C00021E030E0012E01C0220F0A94EAF72095A6
:1024D0008081282320839E012F5F3F4F41E06F2D95
:1024E000802F0E94FB108111B5CFE981FA81908184
:1024F000992309F4B3CF91509083E0912A09F09188
:102500002B099285926092872296E5E00C943277AF
:10251000A2E0B0E0EEE8F2E10C941377F82EE62E9C
:10252000042F0E94D71187FF02C011E061C08823E9
:1025300011F010E05DC09E012F5F3F4F40E06E2D17
:102540008F2D0E94FB10182F8111EFCFE0912A09E7
:10255000F0912B098285826082878BE5F89EF001DD
:102560001124EE53F14F9081802F869586958695A4
:10257000E981FA810770E80FF11D913061F480E87C
:1025800090E0002E02C0959587950A94E2F790811D
:10259000892B80832DC081E090E0002E01C0880F40
:1025A0000A94EAF79081892B80839E012F5F3F4F29
:1025B00041E06E2D8F2D0E94FB10182F8111B5CF99
:1025C000C980DA80F60100816E2D8F2D0E94500E99
:1025D000202F30E02817390708F0ABCF0F5FF60146
:1025E0000083E0912A09F0912B098285826082871D
:1025F000812F2296E8E00C942F77A1E0B0E0E3E091
:10260000F3E10C9415778C01F62EE42E422FEE2088
:10261000A1F08BE5689FF0011124ED53F14F828109
:102620008E1558F06E2D8F2D29830E94500E4981F2
:10263000242F30E02817390728F06E2D82E40E94FD
:10264000C82F10C06E2D8F2D0E94470EAB01BC010C
:10265000F80120813181EE24E39400E011E08F2D18
:102660000E94093D2196E6E00C943177A0E0B0E0AD
:10267000ECE3F3E10C940F77C82FD62FF42E590119
:102680004801662391F08BE5C89F80011124F80171
:10269000ED53F14F8281861740F08C2F0E94500E2F
:1026A000CF2CD12CC816D90620F04F2D6D2F8E2D92
:1026B0006AC0F801EE53F14F108117FF6DC0809191
:1026C0000A0D8C1305C080910B0D8D1709F450C0B5
:1026D00048E250E061E070E08CE09DE00E9493777A
:1026E000812F8F77833011F1843089F1823009F0A6
:1026F00060C06D2F8C2F0E94500E8C0140E06D2F1A
:102700008C2F0E94EE0DAC0160E070E055556D4FCE
:102710007F4F2CE03DE08C2F0E94CD3C823008F0B2
:1027200048C0C0930A0DD0930B0D22C06D2F8C2F83
:102730000E94500E8C0140E06D2F8C2F0E94EE0DF8
:10274000AC0160E070E05A5A6A4F7F4FE2CF6D2FC4
:102750008C2F0E94500E8C0140E06D2F8C2F0E9418
:10276000EE0DAC0160E070E05058634F7F4FD1CF69
:10277000F601E65FF24F82819EEF980F9A3030F4B7
:102780004F2D6D2F8E5E0E94C82F13C08F3021F405
:102790008AE40E94A8300DC04F2D6D2F8C2F0E940F
:1027A000470EAB01BC01840195018C2F0E94CD3CEA
:1027B00001C082E0CDB7DEB7ECE00C942B77EF924E
:1027C0000F931F93CF93DF93EC01E881F981808110
:1027D0008D8B81818E8B83E4E82E00E011E09F01D8
:1027E000418160818C890E943613882329F0CE01B3
:1027F0000E943F0D81E010C092E09B83E881F98147
:1028000020819A85211104C021812A83906203C00E
:102810002FEF2A839F7D9A87DF91CF911F910F9190
:10282000EF9008950F931F93CF93DF938C01EA01EC
:10283000645E7F4FFC0180810E941C0F81111CC0CF
:10284000E881F9818091EB0C8083E881F9818091A6
:10285000EC0C8183F80180818C8B8A852FED33E12C
:102860003E872D872CE83EE03C872B878460806480
:102870008A87CE010E94DF13DF91CF911F910F91C4
:102880000895EF920F931F93FC01862F642F422F20
:102890002081318192E4E92E00E011E00E9436139C
:1028A0001F910F91EF900895AF92BF92CF92DF9258
:1028B000EF920F931F93CF93DF931F921F92CDB789
:1028C000DEB76C015B018CE1A80EB11CB501F6010D
:1028D00080810E941C0F882311F08FEF29C0809106
:1028E000EB0C89838091EC0C8A834A816981F60123
:1028F00080810E94881283E4E82E02E010E09E01AD
:102900002F5F3F4F4A816981F60180810E94361313
:102910008111E3CF89818111E8CF1092EA0C41E067
:10292000B501F60180810E949D0F8111D6CF81E013
:102930000F900F90DF91CF911F910F91EF90DF904B
:10294000CF90BF90AF900895EF920F931F93CF93C6
:10295000DF93EC018B818830B1F483E4E82E02E050
:1029600010E028EE3CE04A81698188810E9436139C
:10297000811124C08091E80C882379F189838091AA
:10298000E90C8A831B821981112399F008818BE558
:10299000089FF0011124ED53F14F8281811748F017
:1029A000612F802F0E94500E2A8130E028173907AE
:1029B00038F04A81612F83E40E94C82F81E00EC065
:1029C000BE016F5F7F4F802F0E941C0F8111F6CFD9
:1029D0008B818F5F8B8380E001C08FEFDF91CF9180
:1029E0001F910F91EF9008950F931F93CF93DF9353
:1029F0008C01EB01C8010E94A414811167C0809171
:102A0000EA0C8823B9F38DE2FE0111928A95E9F769
:102A100084E08B8F9091EA0C9058892F87708730D3
:102A200009F4987F998BF80181819281A3818C8F21
:102A30009D8FAE8F8E8D81508E8F2091060D80914F
:102A4000070D90E0982F8827820F911D9B8B8A8B12
:102A50008FEF8C8B80E1EDEEFCE0DE0101900D92BA
:102A60008A95E1F78FE0FE01E80FF11D9081903A21
:102A700009F410828150B8F78091050D6CE30E9433
:102A80009176998F8091040D68E10E949176988FDC
:102A90008091030D90E001976FE170E00E94B176A4
:102AA0008F5F8F8B8091020D90E001976CE070E05A
:102AB0000E94B1768F5F8E8B8091010D64E60E943B
:102AC0009176903508F49C599D8B80E0DF91CF91F1
:102AD0001F910F910895A2E0B0E0E1E7F5E10C94B9
:102AE00019771A821982611103C080E090E040C01A
:102AF0009BE5899F90011124F901ED53F14F9281DB
:102B0000961798F3F901EE53F14F90819F779E014C
:102B10002F5F3F4F41E0913019F50E94FB1081116A
:102B2000E4CFE981FA81BF01605E7F4F40E050E071
:102B30002191922F969595752575920F892F837304
:102B4000969596959373980F892F8F7092959F7095
:102B5000980F490F511DE617F70751F7CA0108C032
:102B60000E94FB108111C1CFE981FA81808190E040
:102B70002296E2E00C943577A1E0B0E0E2ECF5E1DA
:102B80000C940F77D82E4B017A01A82EB12C8BE52F
:102B9000D89E80011124F801EE53F14F8081FB0192
:102BA0006081813079F5162F612F8D2D0E946B1574
:102BB000F4012081892B91F41F5F8BE58A9DF00140
:102BC0008B9DF00D1124ED53F14F8281181711F0F8
:102BD000111101C011E01213E7CF26C0121303C078
:102BE000F701008101C000E0402F612F8D2D0E9470
:102BF000D711811102C00F5FF7CFF4011083F701E5
:102C0000008398C00D53114FF8018081681311C0E3
:102C10008D2D0E946B15892B49F48091320E811104
:102C200003C088E40E94A83081E085C0F801C68016
:102C300002C0F801C58020E0233008F040C0F40154
:102C400060818D2D29830E946B152981892BD1F5F7
:102C5000F4018081F8019081891710F4815013C02C
:102C600031E0380FF40130839BE59A9DF0019B9D84
:102C7000F00D1124EE53F14F90819F77933029F49A
:102C8000353319F48E5FF4018083F4018081811162
:102C900008C0F80180818F5FF4018083F701108202
:102CA0002F5FF4019081F8018281891728F68081D5
:102CB0008150F4018083F70110822F5FBDCF233054
:102CC00009F4ABCFF70190811C2D190F1083F4018B
:102CD00060818D2D0E94500E212F30E0281739077A
:102CE00040F0181B19F4F701108203C01150F701CE
:102CF000108303E6F7014081F40160818D2D0E946D
:102D0000D7111816A4F00150A8F0F701208111E0A6
:102D1000120F1083F40160818D2D0E94500E212F1F
:102D200030E02817390730F3F7011082E3CF002392
:102D300009F473CF80E02196ECE00C942B77A0E0AF
:102D4000B0E0E5EAF6E10C9411776C01EB01BC010F
:102D5000CE010E94E30ECE010E94A414181614F4B2
:102D600081E0CCC0811108C08091EA0C8111F3CFC1
:102D70009B8191509B83C2C019810A815E01BFEF84
:102D8000AB1ABB0AAE014E5F5F4FB501F601808101
:102D90000E94BC158111E4CF89818093E80C8A815F
:102DA0008093E90CD601FC90402F612F8F2D0E945B
:102DB000470EAB01BC01E12C02E010E028EE3CE044
:102DC0008F2D0E94093D8111CBCF4A816981F60187
:102DD00080810E941D128111C3CFD601FC90BBE5FA
:102DE000FB9EF0011124EE53F14F8081813061F0A0
:102DF00080E2E8EEFCE0DF011D928A95E9F78FEFB3
:102E00008093E90C10E068C0F601468165818F2D42
:102E10000E94470EAB01BC014C5D5F4F6F4F7F4F6F
:102E200003E010E028EE3CE08F2D0E94CD3C8111A4
:102E300097CF6091E80C6623D9F2D601FC904091BF
:102E4000E90C8F2D0E94470E2091EA0C022F10E012
:102E500020E030E0045E1F4F2F4F3F4FAB01BC011D
:102E6000400F511F621F731F02E010E02BEE3CE089
:102E70008F2D0E94CD3C811173CF8091EB0C9091EE
:102E8000EC0C01969093EC0C8093EB0CF601F08027
:102E90004091E90C6091E80C8F2D0E94470E209123
:102EA000EA0C022F10E020E030E0045E1F4F2F4FAD
:102EB0003F4FAB01BC01400F511F621F731FEE2437
:102EC000E39402E010E02BEE3CE08F2D0E94093DE0
:102ED000882309F48DCF44CF1B8340E0B501D60190
:102EE0008C910E949D0F81113BCF1092E90C1F5FC6
:102EF000183091F79FEF9093E90C1B82CDB7DEB7A6
:102F0000EAE00C942D77A5E1B0E0E9E8F7E10C9454
:102F10000F776C018B01DC01EC91BBE5EB9FF001BD
:102F20001124EE53F14F8081813011F08FE11FC0E9
:102F30000E94C10C5C01892B09F413C1BE016F5FB3
:102F40007F4FC6010E949F1681110BC1F60185813A
:102F50008D8B86818C8BAE014C5E5F4FBE016B5EAC
:102F60007F4F80810E94BC15882321F088E40E9455
:102F7000A830F7C04C896D89D6018C910E941D1232
:102F80008111EFC08D898B8B8C898A8BAE014E5E4F
:102F90005F4FBE016D5E7F4FF60180810E94BC15C0
:102FA000882351F088E40E94A8304C896D89D601AD
:102FB0008C910E948812D5C04A896B89F601808164
:102FC0000E941D128111CDC0D501ED91FC9180E0D0
:102FD00091E0DF019C011D9221503040E1F7D501C5
:102FE0008D919C9149E150E060EA70E004960E9466
:102FF0009377D501ED91FC9111978B8980838A8914
:10300000818388E48283ED91FC918D8980A38C89F2
:1030100081A3D60115968C91159782A316968C9153
:1030200083A38A8184A38B8185A38C818295880F59
:10303000807E8E5F86A34801D501ED91FC91349688
:10304000D8018D91882311F08193FBCFD501ED91AB
:10305000FC91D8018C91868B11968C91878B81E3A2
:10306000818F88E4828FF601F0804C896D898F2DE5
:103070000E94470EAB01BC01D5012D913C91E12C82
:1030800000E011E08F2D0E94093D81116AC0D50139
:10309000ED91FC9180E091E0DF019C011D922150B7
:1030A0003040E1F7D501ED91FC918FEF8183F6017E
:1030B000F0804A896B898F2D0E94470EAB01BC01BD
:1030C000D5012D913C918F2D0E94093D811149C060
:1030D0008FE1EAEEFCE0DF011D928A95E9F740E11D
:1030E00050E060EA70E08DEE9CE00E949377EDEE98
:1030F000FCE0D4018D914D01882311F08193F9CF2B
:1031000086E88093EA0C8D898093EB0C8C89809300
:10311000EC0C82E08093060D0E94F10FF601D08046
:103120004B816A818D2D0E94470E2C81F0E22F9FEA
:10313000A00111248A01550F220B330B0E5F1F4F84
:103140002F4F3F4FAB01BC01400F511F621F731F38
:10315000EE24E3940EE110E02AEE3CE08D2D0E9477
:10316000093D6596ECE00C942B77A2E0B0E0EBEB28
:10317000F8E10C9412776C01DC0155968C9155970F
:103180008A8356968C915697898357968D919C91F8
:103190005897019658969C938E935797ED91FC9172
:1031A00011971082ED91FC91119712968C911297C4
:1031B0008183AE014F5F5F4FBE016E5F7F4F5496BC
:1031C0008C910E94BC15882321F01A82F090320E57
:1031D00013C0D601ED91FC9111978A818083ED9106
:1031E000FC911197498141836A8154968C910E9488
:1031F0001D1281112BC0F12CF601B4884689658916
:103200008B2D0E94470EAB01BC01D6012D913C9144
:10321000EE24E39400E011E08B2D0E94093D182F6D
:10322000811114C08A81F601858B8981868B82E0A9
:10323000838381E0828382858D7F8287C6010E949D
:10324000DE0DFF2039F08F2D0E94A830C6010E94AC
:103250003F0D11E0812F2296E9E00C942E770F9319
:103260001F93CF93DF93D82FC1E000E010E08BE5F0
:10327000D89F90011124F901ED53F14F82818C17F1
:10328000C0F0F901EE53F14F90819F77913049F0F2
:10329000943019F4C83229F40AC0C23141F0C53360
:1032A00031F06C2F8D2F0E946B15080F191FCF5F07
:1032B000F1F6C801DF91CF911F910F910895A1E11F
:1032C000B0E0E5E6F9E10C940B776C015B01142F9B
:1032D0007901DC01EC91BBE5EB9FF0011124EF5883
:1032E000F14F83A981FD02C08AE19FC00023B9F09C
:1032F000A901C6010E9412148091320E81111FC1D2
:10330000D701ED91FC918081882309F4D8C0D701C1
:103310001D96ED91FC911E97C7011995EDCFBE0149
:103320006F5F7F4FC6010E949F16811108C18FE118
:10333000EAEEFCE0DF011D928A95E9F740E150E0FA
:1033400060EA70E08DEE9CE00E949377F501ADEEAF
:10335000BCE08191882311F08D93FBCF1093EA0C90
:10336000F601B0806B2C712C2BE5B29EF00111247C
:10337000EE53F14F8081813011F001E029C012E05D
:10338000612F8B2D0E946B15892B09F03FC01F5FA9
:103390008BE5869DF001879DF00D1124ED53F14FD3
:1033A0008281181729F0112319F0123049F7C7C08C
:1033B00011E0E6CF102FD4016C91601B8B2D0E9481
:1033C0006B15892BD1F40195101614F401E0011B43
:1033D000402E002E000C55082BE5269DC001279D90
:1033E000900D11249C012D53314F4901D9011296A2
:1033F0008C9190E048165906ECF2F401828190E03D
:103400004816590669F0F4011081101B00E0612F85
:103410008B2D0E94500E202F30E02817390740F0E6
:103420008091320E81118BC088E40E94A83087C041
:10343000402F612F8B2D0E94D711181614F00F5FAB
:10344000E6CF1093EB0C0093EC0C402F612FF601AC
:1034500080810E941D12811172C00E94F10F41E013
:10346000BE016E5F7F4FD6018C910E949D0F81112E
:1034700066C0F701828588608064828782E08383EA
:1034800082838FE090E1908B878785EB98E1968728
:1034900085878CE89EE0948783870190F081E02DFA
:1034A0008DE082838A819B81AC81F701818B928B35
:1034B000A38BD6018C91848B158B068B40C0F501B4
:1034C000848D958DA68DF701818B928BA38B209196
:1034D000060D8091070D90E0982F8827820F911D8F
:1034E0000197908F878B82858B7F828792819F5FE8
:1034F0009383911104C08260F701828704C08D7F9D
:10350000D7011A968C9385EB98E1F701968785870A
:103510008FE090E1908B87878CE89EE0948783878B
:1035200082858860806482870E94F10FB7016F5E98
:103530007F4F41E0D70154968C910E949D0F619678
:10354000E0E10C942777A0E0B0E0E9EAFAE10C941E
:1035500011777B01EA0159012BE5829FC0011124FB
:10356000FC01ED53F14F6F0183818B01080F111D99
:1035700049E150E060EA70E0C8010E949377F801E9
:103580009E012F5E3F4F8991882329F0C217D307F0
:1035900011F08193F8CFF6018481D701A80FB11DF6
:1035A00085E0F50101900D928A95E1F7CDB7DEB780
:1035B000EAE00C942D77A0E0B0E0E1EEFAE10C94A3
:1035C0001377F82EEB016A018901E12C4E2D61E0A1
:1035D0008F2D0E941D12E39423E2E212F7CFB8016F
:1035E00088E40E94790EE0912A09F0912B09A081CC
:1035F000B1813BE5F39EF0011124ED53F14F82813F
:1036000018968C93E881F98180E091E0DF019C01BC
:103610001D9221503040E1F7EE24E394E08282E2F3
:10362000818388E4828391E3D80113969C93139756
:1036300014968C93688179819801A6018F2D0E9440
:10364000A31AE881F981E0A2E881F981E1A2288149
:103650003981E12C00E011E040E051E060E070E0F1
:103660008F2D0E94093D811107C02881398142E2D6
:1036700061E08F2D0E94950ECDB7DEB7E8E00C9487
:103680002F77A2E0B0E0E7E4FBE10C941477D82EAA
:103690008B017A0140E062E129833A830E941D1286
:1036A00041E062E18D2D0E941D12E0912A09F09106
:1036B0002B090190F081E02D82E1808381E08183FC
:1036C00081E4828392E329813A81F901938384839F
:1036D000E0912A09F0912B0960817181A7018D2D5C
:1036E0000E94A31AA0912A09B0912B09ED91FC9197
:1036F0001197E755FF4F80EA8083ED91FC91E655E5
:10370000FF4F8083F8012081318141E062E18D2DFE
:103710000E94950E2296E7E00C943077CF93DF93CA
:10372000D82F0E94411BE0912A09F0912B090190AA
:10373000F081E02D80E88383C0E04C2F65E38D2F7E
:103740000E941D12CF5FC331C1F7DF91CF91089561
:10375000A0E0B0E0EEEAFBE10C941377C82F6B0118
:103760007A018901D0E04D2F68E28C2F0E941D1252
:10377000DF5FD430C1F7E0912A09F0912B09019065
:10378000F081E02DD8E2D083E0912A09F0912B0955
:103790000190F081E02D82E08183B80184E40E94F1
:1037A000790E69E28C2F0E946B15E0912A09F09145
:1037B0002B090190F081E02D1082E0912A09F0910F
:1037C0002B090190F081E02D8FEF8183B80184E413
:1037D0000E94790EE0912A09F0912B09828582607E
:1037E0008287D601ED91FC911197D08383E081838C
:1037F00084E4828393E3F801938384836D917C91C5
:103800009801A7018C2F0E94A31AD6012D913C91FB
:10381000E12C00E011E040E058E166E070E08C2F20
:103820000E94093D811108C0F6012081318143E0E9
:1038300068E28C2F0E94950ECDB7DEB7E8E00C94BD
:103840002F7780912A0990912B09009731F0DC01A4
:103850001F96ED91FC9150971995809128099091B0
:103860002909009731F0DC011F96ED91FC915097EA
:10387000199580E00895ACE0B0E0E1E4FCE10C943F
:103880000977682E712C2BE5829FF0011124EF58E7
:10389000F14FDF01AF5ABF4F9C91913041F497A592
:1038A000913009F0DBC090A9913009F0D7C02A010E
:1038B0001B01F82E0E94C10C6C01009709F4CEC0C8
:1038C000DC011A968C911A9788608F7B1A968C93DC
:1038D000C6010E94D10DD601ED91FC9180E091E0EE
:1038E000DF019C011D9221503040E1F70E94211C14
:1038F000E0912A09F0912B098FEF818BE091280943
:10390000F0912909309709F0818B41145104D1F1CC
:10391000AA24A394B12C8BE5869DF001879DF00D20
:103920001124ED53F14F828190E08A159B0518F127
:10393000812C912C6A2D8F2D0E94500E881699068D
:10394000B0F4482D6A2D8F2D0E94470EAB01BC01AB
:10395000D6012D913C91E12C00E011E08F2D0E94C9
:10396000093D81117BC0BFEF8B1A9B0AE3CFEFEFBC
:10397000AE1ABE0AD0CFD2018C91888711968C9155
:10398000898738C0F9828BE5869D8001879D100D5F
:1039900011240D53114FF80180818E8381E08F83B4
:1039A000BE01685F7F4FCE0101960E94AE1081116B
:1039B00055C0D8019C90A12CB12C692D8F2D0E944F
:1039C000500EA816B906B0F44A2D692D8F2D0E940D
:1039D000470EAB01BC01F60120813181E12C00E0F2
:1039E00011E08F2D0E94093D811138C0FFEFAF1A01
:1039F000BF0AE3CF80EA8A8701E010E02BE5269D2D
:103A0000C001279D900D1124FC01ED53F14F22813F
:103A100030E020173107A8F0A12CB12C602F8F2D9A
:103A20000E94500EA816B90648F44A2D602F8F2D1B
:103A30000E9488122FEFA21AB20AF0CF0F5F1F4F19
:103A4000DDCFFC01E653F14F0190F081E02D9E01A6
:103A5000285F3F4FA101B6018F2D19952C96E2E109
:103A60000C942577A1E0B0E0E8E3FDE10C940F773A
:103A70004C019B01DC019C91092F10E0BBE59B9F51
:103A8000C0011124FC01EF58F14FC3ACD4ACE5AC3C
:103A9000F6ACC114E6E5DE06E5E0EE06F10409F455
:103AA00046C0D0F4C1144BEAD40642E0E406F10467
:103AB000A1F1ABEACA16ADEADA06A2E0EA06F10421
:103AC00009F053C049E050E065EA75E08D53914F2D
:103AD0000E946D7722E87EC0C114B0E8DB06BCE02E
:103AE000EB06F10471F1E0E8CE16ECE8DE06ECE05E
:103AF000EE06F10481F1F6E5CF16FBE5DF06F5E011
:103B0000EF06F10491F549E050E06CE975E08D5362
:103B1000914F0E946D7723E85DC049E050E065EA6F
:103B200075E08D53914F0E946D7722E053C049E0BC
:103B300050E06CE975E08D53914F0E946D7723E062
:103B400049C049E050E063E975E08D53914F0E9410
:103B50006D7724E03FC049E050E063E975E08D53A4
:103B6000914F0E946D7724E835C0D701C601AA277E
:103B7000BB27892B8A2B8B2B21F08FE40E94A83046
:103B800064C0C114D10443E0E406F10479F46EE2A8
:103B900070E0C9010E94BB77DC0112962C9112974C
:103BA000263321F413968C91843339F38BE5809F6F
:103BB0005001819FB00C112449E050E06AE875E0A3
:103BC000C5018D53914F0E946D77F501EB53F14F75
:103BD000E08221E080912A0990912B09892BB1F490
:103BE00029830E949F0CFC0190932B0980932A0942
:103BF0002981892B51F185E684838FEF818B88EBB6
:103C00009EE0908B87878285806482878BE5809F8A
:103C1000F001819FF00D1124DF01AE53B14F2C93C1
:103C2000ED53F14F8081D40115968C9315978181C6
:103C300016968C93809127098F5F8093270927FF21
:103C400006C08FEF80930A0D02C081E001C080E0C2
:103C50002196ECE00C942B77CF93DF93EC01FB01E2
:103C6000A081B1818D818C93A8818BE5A89FD00123
:103C70001124AE53B14F8C91A081B181813021F4D8
:103C80008E8111968C9302C011961C928881848B30
:103C900082852FED33E1368725872CE83EE0348797
:103CA0002387846080648287CF010E94DF13DF91C5
:103CB000CF91089580912A0990912B090E943F0D80
:103CC00010922B0910922A098091280990912909B4
:103CD0000E943F0D1092290910922809109227097D
:103CE0000895CF93C82F80912A0990912B090097AE
:103CF00079F0DC011F96ED91FC9150971995E091B8
:103D00002A09F0912B0981898C1302C08FEF818BD6
:103D10008091280990912909009779F0DC011F967C
:103D2000ED91FC9150971995E0912809F09129099E
:103D300081898C1302C08FEF818B8091270981507C
:103D4000809327098823A1F080912A0990912B095B
:103D50000E943F0D80912809909129090E943F0DF2
:103D600010922B0910922A09109229091092280901
:103D7000CF91089590E01398992309F081FD11984F
:103D800040912D0F50912E0F465F5F4F20912D0FC8
:103D900030912E0F241B350B37FDF8CF139A119A53
:103DA00040912D0F50912E0F465F5F4F20912D0FA8
:103DB00030912E0F241B350B37FDF8CF913021F0B9
:103DC00091E080FDD8CFDACF08958F929F92BF9275
:103DD000CF92DF92EF92FF920F931F93CF93DF93D7
:103DE0001F921F92CDB7DEB7B090320E1092320EF6
:103DF00085E00E94670DF59A00E0E12CF12CC12CC2
:103E0000D12C10E080912C09811708F460C0A70123
:103E100060E070E084E399E00E94DD4D81110DC007
:103E20009E012F5F3F4F47E750E06EE37DE084E364
:103E300099E00E943F4B882321F061E00E94C1314C
:103E400086C089819A818737910520F02EE33DE075
:103E500000E019C0FC01E25CF24F1082892BB1F73F
:103E600080912C098F3F21F4115010932C0902C02E
:103E700010922C09E12CF12C1FEF27C08A3049F059
:103E80008A3309F401E0F90180812F5F3F4F8D30C3
:103E9000A9F76F014F01808131968D30D9F38A30B7
:103EA000C9F3E114F10461F448E050E06EEA75E012
:103EB0008EE39DE00E946077892B11F4F5981150F4
:103EC000C4018E539D40E80EF91E1F5F9BCFF60183
:103ED000108280912D099BE5899FF0011124EF58F4
:103EE000F14F21A932A92F59394011F00E948B3C82
:103EF000A0912D09A0936F0EFBE5AF9FD001112477
:103F0000A456B14F86E0EEE2F9E001900D928A9559
:103F1000E1F701110AC080913E0D8F3231F08AE342
:103F200080933D0D0DE31DE002C00EE31DE0F59B07
:103F300003C0C8010E946776C8010E94DC228091FC
:103F4000320E882331F0893421F0B092320E80E0B5
:103F500001C081E00F900F90DF91CF911F910F91E1
:103F6000FF90EF90DF90CF90BF909F908F9008953B
:103F7000FF920F931F93CF93DF93EC018B01F42EED
:103F8000F2988091360990913709892B59F084E392
:103F900099E00E94D14D8EE1E4E3F9E0DF011D924A
:103FA0008A95E9F7F80180818823D1F149815A8106
:103FB0006B817C81A8818BE58A9FD0011124AF5849
:103FC000B14F56964D935D936D937C93599798811D
:103FD000899FC001112421E0A80164E379E08F5892
:103FE000914F0E94E249882321F061E00E94C13193
:103FF00017C087E0FE01ADE2B9E001900D928A950D
:10400000E1F7FF2021F08FEF80932C0902C010927E
:104010002C090E94E51E882319F083E00E94BA1E35
:10402000CDB7DEB7E5E00C94327740E00E94B81FD0
:104030000895A3E6B0E0EFE1F0E20C9418778091E8
:10404000360990913709892B09F0D9C063EC75E0E6
:1040500088EE9CE00E94767780916F0E9BE5899FA9
:10406000F0011124E456F14F96E0ABE5B0E0AC0F5F
:10407000BD1F119601900D929A95E1F76C968FAF46
:104080006C9780912B0F81FF02C041E001C040E09E
:1040900068EE7CE0CE01855A9F4F0E94B81F809148
:1040A000360990913709892B09F0A3C080912B0F15
:1040B00082FF9BC066EB75E0CE01855B9F4F0E943F
:1040C0007677A0964CAD5DAD6EAD7FADA0976C964A
:1040D0008FAD6C971BE5189FC00111249E01255CD4
:1040E0003F4F8F58914F0E944A4F81117EC06C966E
:1040F0008FAD6C97189FC00111242AE0AE01455B7B
:104100005F4FBE016F5F7F4F8F58914F0E94E24912
:1041100081116BC0119888EE9CE09AAF89AF10E0D6
:10412000BE01615E7F4FCE01CB960E947D4F811113
:104130004BC08CA5882309F447C08FA184FDF0CF24
:10414000CE018C960E947538823051F78091E80C30
:10415000811104C0BE01645D7F4F02C068EE7CE047
:10416000FB0101900020E9F73197AF01461B570B87
:104170009E012E593F4FCE0101960E944D4C88233F
:1041800011F011E021C0A4968EAD9FADA497892BAC
:10419000C1F38DE08CA78AE08DA79E012E593F4F79
:1041A00042E050E0BE01645D7F4FCE0101960E9467
:1041B0004D4C8111E6CF11E0A4968EAD9FADA49732
:1041C000892B09F0ADCFDDCFCE0101960E94D14DF4
:1041D000119A112351F040E0BE01655B7F4FCE0183
:1041E000855A9F4F0E94B81FF29A80E00E94A83023
:1041F00001C0F29A80912B0F10922B0F3AC0809140
:104200002B0F80FF10C080912C098F5F80932C09A9
:1042100080912B0F8E7F80932B0F0E94E51E8823A9
:1042200041F182E024C080912B0F81FF10C080916A
:104230002C09815080932C0980912B0F8D7F8093C6
:104240002B0F0E94E51E8823A1F081E010C0809111
:104250002B0F82FF0EC010922C0980912B0F8B7FA9
:1042600080932B0F0E94E51E882319F083E00E94A3
:10427000BA1ECD59DF4FE3E00C9434778EE1E4E3CE
:10428000F9E0DF011D928A95E9F7F298089580918F
:10429000350D90E04AE750E0481B590B60E070E0B4
:1042A000835C924F0E9493770895A6E0B0E0EBE51F
:1042B000F1E20C9413770E9447216DE270E08DE3E8
:1042C0009DE00E949A777C01892B09F4CBC019826A
:1042D0001A821B821C826AE370E08DE39DE00E94DB
:1042E0009A779E838D83892B79F4EDE3FDE001902D
:1042F0000020E9F73197ED53FD40339708F4B5C03E
:104300008FE39DE09E838D838D819E8101969E83A8
:104310008D83CE0101966C0110E0ED81FE818081DC
:104320008823D1F01430D9F0ED81FE818081803274
:1043300021F43196FE83ED83F7CF8D31D1F38C32AA
:10434000C1F3882349F01F5FCE0105960E942870B3
:10435000D6018D936D01E1CF1F3F09F486C0F701AF
:104360008181823531F0873521F0803509F07AC0BE
:1043700055C089810E94B10D8C01892B11F486E40E
:1043800072C0D70111968C91823541F5F80161898F
:104390008BE5689FF0011124EF58F14F01A8F2A9B5
:1043A000E02D7096A591B4912C814B81C801FD013F
:1043B000199580913D0D823461F481E0D801139606
:1043C0008C931397ED91FC911197808112968C93A9
:1043D0004CC0F80113828FEF828347C080913D0D5E
:1043E000823441F4D801ED91FC91119713968C9190
:1043F00081508083F80161898BE5689FF001112469
:10440000EF58F14F01A8F2A9E02D7296A591B49151
:104410002C814B81C801FD01199527C089810E941B
:10442000B10DFC01892B09F4AACF82898130B9F042
:104430008B81498193E6941B94830388F489E02D52
:10444000815048F0258936892115310511F42389D9
:104450003489F901F5CF448382858D7F82878A81F3
:10446000838303C08FE10E94A8302696E8E00C9475
:104470002F77A0E0B0E0EFE3F2E20C941377E09046
:104480005709F09058099E2D981B009155091091DD
:104490005609C62FD0E0692F70E0C61BD70B0C174A
:1044A0001D0708F4E8016E01DD24D0915409E09164
:1044B0005209F0915309808191816D5B724FA60181
:1044C0008D0F911D0E948A77CD0FC0935409EC0C7B
:1044D000FD1CF0925809E09257090C191D09109320
:1044E0005609009355090115110521F4109253093D
:1044F00010925209CDB7DEB7E8E00C942F77CF9336
:10450000DF93EC018091330E811118C087ED95E0A7
:104510000E948E0B8D2F0E946C0B8C2F0E946C0BB7
:1045200080ED95E00E948E0B809113020E946C0B2F
:10453000809112020E946C0B0E949D0B8091330EA1
:10454000811104C0809159098093330E8091330EFC
:1045500028E636E0F9013296E491EE23A9F08E13B5
:1045600010C0F90145915491C417D50751F4F901D0
:10457000339645915491F90135968491FA01199534
:104580000CC02A5F3F4FE6CF4091120250911302B8
:10459000652F772782E60E94C82F8FEF9FEF9093B9
:1045A0001302809312028091330E80935909109266
:1045B000330EDF91CF910895A6E3B0E0E2EEF2E290
:1045C0000C9417778C0121E0AE014B5C5F4FBE016C
:1045D000625D7F4F0E943C6F81113FC010923B0E85
:1045E0006DA97EA9FB018081882341F18F3529F4D3
:1045F000CE0101960E94A5770AC09E012F5F3F4F12
:1046000040E2CE018E960E94066F811126C0EEA573
:104610008BE5E89FF0011124EF58F14F01A8F2A9B2
:10462000E02D7C9625913491BE016F5F7F4FCE01C6
:104630008E96F9011995811110C00BC06FE270E0E0
:10464000C8010E949A77892B21F487E20E94A83042
:1046500004C0CE018E960E94FD6DE696E4E00C94B7
:104660003377A6E7B0E0E7E3F3E20C94117780E05C
:104670000E94A8304091350D483729F480E20E940D
:10468000A8300C94AE2E8091330E811107C050E0FB
:1046900060E070E08DE39DE00E94A40B3091350D49
:1046A0003093360D332359F0E32FF0E0E45CF24F02
:1046B00080818D3021F48FEF830F8093350D209111
:1046C000350D211105C08FE10E94A8300C94AE2E4B
:1046D000E0913D0DE83511F40C94F62D90913E0DCE
:1046E000943409F01FC10E94472180913D0D8D3403
:1046F00039F0823509F444C0833409F00EC130C06A
:104700006AE370E08DE39DE00E949A77892B29F49B
:1047100082E20E94A8300C94AE2E20E0AE01425DF1
:104720005F4FBE016F5F7F4F8FE39DE00E943C6F44
:1047300081110C94AE2EE9812BE5E29FF00111244A
:10474000EF58F14F01A8F2A9E02D7A962591349106
:104750006EA57FA5CE010196F90119950C94AE2E98
:104760008FE39DE00E94DC22F29902C00C94AE2EF1
:1047700061E070E080E090E00E9415200C94AE2E85
:104780006FE270E08DE39DE00E949A77892B29F01B
:1047900082E20E94A8300C94AE2E8FE39DE0E59655
:1047A0009FAF8EAFE597CE018D589F4F0E94206E30
:1047B000E5966EAD7FADE597DB019C919A3329F0CC
:1047C00082E20E94A8300C94AE2EDE01A459BF4FA5
:1047D0008D93E82EF12C1BE51E9DF0011F9DF00D21
:1047E0001124E456F14F86E001900D928A95E1F78D
:1047F0006F5F7F4F9E01225D3F4F46E0CE0184599F
:104800009F4F0E94066F81110C94AE2EAD96EFADB6
:10481000AD971E9FF0011124EF58F14F21A932A945
:10482000245E3F4FF90145915491BE01625D7F4F77
:10483000CE0184599F4FFA01199581110C94AE2E27
:10484000AD96EFADAD971E9FF0011124EF58F14FDB
:1048500001A8F2A9E02D769625913491BE01645904
:104860007F4FCE01855A9F4FF901199581110C9404
:10487000AE2E6C96EFAD6C971E9FF0011124EF5891
:10488000F14F01A8F2A9E02D789625913491BE014F
:104890006F5F7F4FCE01855A9F4FF90119958F3F6A
:1048A00051F08091320E81110C94AE2E8FE30E9454
:1048B000A8300C94AE2E1E9DF0011F9DF00D11240A
:1048C000E456F14F86E0ACE6B0E0AC0FBD1F1196A8
:1048D00001900D928A95E1F7AD96EFADAD971E9FD1
:1048E000F0011124EF58F14F01A8F2A9E02D3696FE
:1048F00025913491BE01625D7F4FCE0184599F4F57
:10490000F90119958F3F11F40C94AE2E40E0682FF9
:1049100081E00E94C82F0C94AE2E8EE10E94A83038
:104920000C94AE2E4E2F50E0FA01E254F109E4311E
:10493000F10510F00C94A22E8827EE58FF4F8F4FF0
:104940000C94E7760E9455210C94AE2E903531F0F0
:10495000903D61F580913F0D81500AC00E94472132
:104960008FE39DE09A838983CE0101960E94206E99
:104970009091700E11E0180F891738F040E0612F08
:104980008DE40E94C82F0C94AE2E80936F0EF29B84
:1049900006C061E070E080E090E00E94152040E0F9
:1049A000612F82E00E94C82F0C94AE2E0E944721F6
:1049B0006DE370E08DE39DE00E949A77009749F4E3
:1049C000E7961FAE1EAEE7978EE10E94A8300C94CA
:1049D000AE2E9C012F5F3F4FE7963FAF2EAFE7977C
:1049E000DC011C9220E0AE014D585F4FBE01625DBC
:1049F0007F4F8EE39DE00E943C6F81110C94AE2EA0
:104A0000E5968EAD9FADE597FC012081211105C093
:104A100082E20E94A8300C94AE2E0E940E6E81118C
:104A2000D3CFE5966EAD7FADE597AE014F5F5F4F9B
:104A30005A019A0140E2CE018E960E94066F8111C2
:104A400005C08FE30E94A8300C94AE2E181614F403
:104A50000C94AE2E80E00E94A8300E94C10C7C0114
:104A60000E94C10C6C01E114F10411F40C94AE2EFF
:104A7000892B11F40C94AE2EAE0144595F4F6CE2B9
:104A8000E7968EAD9FADE7970E944576E7969FAF7C
:104A90008EAFE79710E0E7968EAD9FADE797009752
:104AA00009F42BC120E0AE014B585F4FBE01655A9F
:104AB0007F4F0E943C6F811120C1E7966EAD7FADA4
:104AC000E797950140E2CE01855A9F4F0E94066FFD
:104AD000811113C18A898770843001F5812F8B7F02
:104AE00021F080E40E94A83008C16C96EFAD6C976D
:104AF0005BE5E59FF0011124EF58F14F01A8F2A901
:104B0000E02D3496A591B49101E020E0A701B50114
:104B1000CE01855A9F4FFD01199517C0143009F336
:104B20006C96EFAD6C972BE5E29FF0011124EF58E6
:104B3000F14F01A8F2A9E02D25913491A701B5010B
:104B4000CE01855A9F4FF90119958091320E81113E
:104B5000D4C011113DC01A8917708DE2D5011D9284
:104B60008A95E9F7E5966EAD7FADE59740E150E0B7
:104B7000C5010E94AC77EEA51430B1F4BBE5EB9F04
:104B8000F0011124EF58F14F01A8F2A9E02D34965D
:104B9000A591B49101E0F7012581A601B501CE01EF
:104BA0008E96FD01199514C02BE5E29FF0011124AA
:104BB000EF58F14F01A8F2A9E02D3296A591B491DA
:104BC00000E09601412FB501CE018E96FD011995A9
:104BD000D6011396EC91143021F4D70115960C915F
:104BE00002C00E2F0195D70112968C911297139641
:104BF0009C91402F50E0282F30E0692F70E0261B59
:104C0000370B2F5F3F4F241735071CF48F5F082F9A
:104C1000091B202F30E08E2F90E040E051E0481B30
:104C2000590B4217530714F40E2F0195F6012081FA
:104C30003181402F50E0D701ED91FC916E0F7F1F25
:104C4000820F931F0E948A77C6010E94D10DF7013F
:104C500083818150800F8383D60113969C91139793
:104C6000802F890F13968C931397815012968C93F3
:104C7000828585FF04C093818281981759F1F701DD
:104C80008581882351F0D7011D96ED91FC911E97E7
:104C9000C7011995882349F030C0F701838191E05D
:104CA000980F93839281891771F3D60115968C9191
:104CB0001597811104C013968C91811189CFD6016B
:104CC0001D96ED91FC911E97C6011995882309F454
:104CD0007FCF13C0C7010E945B0D0E94C10C7C01F5
:104CE000AE0144595F4F6CE280E090E00E9445764F
:104CF000E7969FAF8EAFE797CECED7011F96ED9187
:104D0000FC915097C7011995C6010E945B0D0C9448
:104D1000AE2E80913F0D0E94B10DFC01892B29F42C
:104D200086E40E94A8300C94AE2E8289823040F036
:104D3000948183E6891B84830388F489E02D94831E
:104D400013828FEF82838091400D2091410D30912D
:104D5000420D4091430D5091440D90913E0D92357E
:104D6000F1F09735D9F1993409F058C0608171811B
:104D700020E031E0DB01A9011D9241505040E1F7F4
:104D8000408151816091410D0E94EE74882311F49D
:104D90000C94AE2E8AE40E94A8300C94AE2E928918
:104DA000923028F48EE40E94A8300C94AE2E6081DC
:104DB000718101E00E94B073882311F40C94AE2E2F
:104DC000813029F484E10E94A8300C94AE2E40E09A
:104DD000682F8AE40E94C82F0C94AE2E92899230DC
:104DE00008F36081718101E00E945574813051F0B7
:104DF00010F40C94AE2E823051F48AE10E94A83057
:104E00000C94AE2E89E10E94A8300C94AE2E40E0A6
:104E1000682F8AE40E94C82F0C94AE2E8FE10E9466
:104E2000A8309CC7233008F499C79D3221F48091A3
:104E30003F0D803521F08EE10E94A8308FC72330CE
:104E400021F09091400D9F3F19F490916F0E9F5F5C
:104E50001092BB0C8EE18093BA0CEEECFDE0DF010A
:104E60001D928A95E9F78DE08093EC0D8091700E8C
:104E7000891708F473C7911108C04FE150E06AE246
:104E800076E0CF010E946D7769C7DD24DA94D90EF0
:104E90000D2D10E0EBE5DE9ED0011124AF58B14F8F
:104EA000D196ED90FC90D297FAE6EF16F5E0FF066A
:104EB00029F4AF5ABF4F8C918F7701C081E0809366
:104EC000CE0D82EE8093CF0D9093D00D40E150E057
:104ED00060EA70E081ED9DE00E949377F7013896DB
:104EE0002591349168EE7CE08D2DF90119958111A1
:104EF00035C7E8EEFCE0A1EDBDE08191882311F01B
:104F00008D93FBCF8BE5809FF001819FF00D1124E5
:104F1000EF58F14F82859385A485B585A093E10D67
:104F20009093E20D8093E30DA0A5468157816085A3
:104F300071859A01AB012150310941095109B0E055
:104F40000E94FE768093E90D7093EA0D6093EB0D5D
:104F500005C78091340D823031F040E062E185E197
:104F60000E94C82FFBC685E00E94670DF7C680919E
:104F70003F0D873509F0E4C0263008F4EFC6809174
:104F8000400DE090410DF12CFE2CEE24E80EF11CBA
:104F9000C090420DF7E7EF16F10431F48091430D14
:104FA0008F7180936D0EDAC6C70186509C410297BF
:104FB00008F4D4C622E0E21628E1F20609F4CEC6CF
:104FC0001092590920911202309113025091330E20
:104FD00063E47DE0FB018E2F861B8C1510F541915B
:104FE000C9018427282F22952827022E2695269549
:104FF0002025022E269520252770082E892F2695FC
:1050000007942795902D822706942795902582272F
:10501000823AA8E39A0719F4403609F458E09C0153
:10502000DACF30931302209312025093330E8CE1A7
:1050300097E0FC013296D490DD2039F1FC014591D6
:1050400054912417350711F00496F3CFD092330E04
:10505000FC013396259134912223B9F03327220F96
:10506000331F220F331FF901E851F84F85919491B6
:105070009093380E8093370EF901E651F84F8591E1
:1050800094919093350E8093340E809152099091B3
:105090005309892B09F45FC66C2DC7010E94392280
:1050A000DD2009F43AC08091520990915309892B6F
:1050B00009F033C009E516E0F80184918D1129C08B
:1050C0003196859194919093580980935709F801EE
:1050D0003396E491F0E03196F0935609E093550948
:1050E000109254090E949F0CDC0190935309809305
:1050F0005209892B09F42AC61A968C911A97806452
:105100001A968C931A97F8013496E4911496EC93BE
:105110001DC60B5F1F4F8111CFCF8091330E8111C0
:105120001DC685EE95E00E948E0B809113020E94B1
:105130006C0B809112020E946C0B0E949D0B0EC69C
:10514000853479F4253008F409C62091400D80910A
:10515000410D90E0982F8827820F911D0E947F2299
:10516000FDC5823509F067CE263008F4F7C5809179
:10517000400DE090410DF12CFE2CEE24E80EF11CC8
:10518000F7FE8CC08091BD0D882309F487C0809103
:105190006F0E1BE5189FC00111248F58914FDC0141
:1051A0009B964D915D916D917C919E97FC01468BF4
:1051B000578B608F718F21E04DEB5DE06AE579E000
:1051C0000E94E249811113C0F0E8FF1A8091620940
:1051D00090916309A0916409B0916509811520E857
:1051E0009207A105B10570F5EFE3FE222BC0809177
:1051F0006F0E189FC00111248F58914FDC015696F5
:105200001D921D921D921C92599721E04DEB5DE07D
:105210006AE579E00E94E2498823B1F21092870E94
:105220001092880E1092890E10928A0E21E04DEB9A
:105230005DE06AE579E081E79EE00E94E249811144
:105240002DC0C2CFAC01BD015F7366277727452B08
:10525000462B472B19F09F73E80EF91EA70160E05B
:1052600070E08AE599E00E94DD4D811117C0009140
:10527000420D053608F004E610E09E012F5F3F4F17
:10528000A8016EEC7DE08AE599E00E943F4B811118
:1052900005C089819A8180179107C1F089E496E061
:1052A000FC01259134912115310581F02E153F0522
:1052B00059F4FC013296E491E093CE0DFC01339653
:1052C000E491E093CF0D02C00496EACF8EEC9DE00E
:1052D0009093B90C8093B80C1092BB0C8091420D46
:1052E00081508093BA0C3AC50E9447218EE39DE01D
:1052F0009A838983CE0101960E94206E182F6AE35B
:1053000070E08DE39DE00E949A779C0101969A835C
:105310008983232B21F482E20E94A8301FC56CE20E
:1053200070E00E949A77AC01009719F0DC011D92A1
:10533000AD01BBE51B9FF0011124EF58F14F01A80F
:10534000F2A9E02D74962591349169817A81812F9B
:10535000F901199503C53093350D0E9447218091BD
:10536000350D823008F4DCCC80913E0D8F700E94A8
:10537000B10D8C01009709F4D3CCDC011B96ED91A3
:10538000FC911C97309709F49EC915964C914423C3
:1053900059F18091350D823068F020913F0D30E059
:1053A000823051F09091400D392B833029F050918B
:1053B000410D03C021E030E051E0451720F483E3C4
:1053C0000E94A830CBC42115310511F021503109BC
:1053D00051115150A42FB0E00E94EF76252FAB0160
:1053E000BC01C8011995BAC440913F0D5091400DC0
:1053F0006091410D7091420D20E01995AFC40E945B
:1054000047216DE370E08DE39DE00E949A7700975D
:1054100041F4E5961FAE1EAEE5978EE10E94A830DE
:105420009DC49C012F5F3F4FE5963FAF2EAFE597A0
:10543000FC01108220E0AE0144595F4FBE01625D65
:105440007F4F8EE39DE00E943C6F811187C420E076
:10545000AE014D585F4FBE01655A7F4FE5968EAD48
:105460009FADE5970E943C6F811178C446E050E003
:10547000BE01615D7F4F8BE590E08C0F9D1F019613
:105480000E947D77892B21F08EE30E94A83066C4AC
:10549000AE968EAD9FADAE970E940E6E8111BDCFC0
:1054A000AE966EAD7FADAE97DB018C91811104C0DD
:1054B00082E20E94A83052C49E012F5F3F4F40E21B
:1054C000CE018E960E94066F811104C08FE30E9468
:1054D000A83044C418160CF441C480E00E94A830DF
:1054E000E5966EAD7FADE5979E012F5F3F4F40E2A1
:1054F000CE01855A9F4F0E94066F81112FC46C9672
:10550000EFAD6C97BBE5EB9FF0011124EF58F14F25
:1055100001A8F2A9E02D7E9625913491AE964EAD6C
:105520005FADAE97BE016F5F7F4FCE01855A9F4F33
:10553000F901199513C4233019F49D3209F4C3C835
:105540000E944721AE0144595F4F6CE28EE39DE01B
:105550000E944576139810E0009709F458C020E0A7
:10556000AE01455A5F4FBE01625D7F4F0E943C6FA6
:10557000EEA52BE5E29FF0011124EF58F14F01A8B1
:10558000F2A9E02D769625913491BE01625D7F4FA0
:1055900087E89BE0F90119958111E0C36D966EAD26
:1055A0007FAD6D97AE014F5F5F4F7A0100E220E063
:1055B00030E040E050E087E89BE00E94A96E87FD64
:1055C0001DC08111CBC38A898770863039F3EEA55F
:1055D0005BE5E59FF0011124EF58F14F01A8F2A916
:1055E000E02D369625913491B701CE018E96F901C2
:1055F00019958F3F09F4B2C3180FD0CFAE014459AB
:105600005F4F6CE280E090E00E944576A5CF40E0DD
:10561000612F81E00E94C82FA1C39091280F992388
:1056200009F409CC80913F0D823509F010C1923008
:1056300021F08FE10E94A83091C3CE0101960E9413
:105640004B092B81822F6CE00E949176092F9111DA
:1056500001C00CE01091400D123409F49EC020F4FA
:10566000113409F454C0EFC0143409F4CAC0193419
:1056700009F0E9C087E18093BA0C8E8114E6612FAE
:105680000E94917663E1680F8EEC9DE00E941E7689
:105690009C018E81612F0E949176692FC9010E9421
:1056A0001E761DE2DC011C936D816F5F01960E94E6
:1056B0001E76FC0110836C8101960E941E7624E503
:1056C000DC012C936B8101960E941E761AE3FC018B
:1056D00010836A8101960E941E76DC011C93698109
:1056E00001960E941E7620E2FC0120836F81F4E087
:1056F0006F9FB0011124635F794F43E050E082EE69
:105700009DE00E946D778DE08093E50D27C389E1D0
:105710008093BA0C47E150E066EF75E082ED9DE0C2
:105720000E946D772F81F4E02F9F90011124B90121
:10573000635F794F44E050E08EEC9DE00E946D770E
:105740006D816F5F83ED9DE00E941E766C8186ED1A
:105750009DE00E941E768E8164E60E949176692FFC
:1057600089ED9DE00E941E76602F8CED9DE00E94E9
:105770001E766A818FED9DE00E941E76698182EE21
:105780009DE00E941E768B818C3018F41093E50DFD
:10579000E5C280E58093E50DE1C288E08093BA0C14
:1057A0008F818093CE0D8E8164E60E949176892F41
:1057B0000E943C768093CF0D8D818F5F0E943C7656
:1057C0008093D00D8C810E943C768093D10D802FE8
:1057D0000E943C768093D20D8A810E943C76809311
:1057E000D30D89810E943C768093D40D81E09B810A
:1057F0009C3008F480E08093D50D8DE08093D60D29
:10580000ADC288E08093BA0C8F818093CE0D8E81DB
:105810008093CF0D9D819F5F9093D00D8C8180935D
:10582000D10D0093D20D8A818093D30D898180930D
:10583000D40D91E02C3008F490E09093D50D8DE0DC
:105840008093D60D8BC28EE10E94A83087C2873527
:1058500009F0F1CA8091400D823439F118F4813495
:1058600041F0E6C0843409F447C0893409F469C0C2
:10587000DFC02B3120F48FE10E94A8306FC26DE0B1
:10588000E62E66E0F62E10E042E050E0B70181E43B
:105890009DE00E946077892B09F4CEC01F5F24E051
:1058A000E20EF11C173081F7E6CF2C3020F3809107
:1058B000410D8F838091420D0E9433768E838091BB
:1058C000430D0E9433768D838091440D0E94337680
:1058D0008C838091450D0E9433768C3011F08B8340
:1058E00001C01B828091460D0E9433768A8380918D
:1058F000470D0E9433761BC02C3008F4BCCF80913A
:10590000410D8F838091420D8E838091430D8D8355
:105910008091440D8C838091450D8C3011F08B83E8
:1059200001C01B828091460D8A838091470D898337
:105930008091480D882309F4C8C08B81845F8B83D4
:10594000C4C0273108F497CF81E49DE09FA78EA7BC
:10595000CE018E960E9428708C568E838EA59FA5B0
:1059600001969FA78EA7CE018E960E9428708D83E8
:105970008EA59FA501969FA78EA7CE018E960E9409
:1059800028708C838EA59FA501969FA78EA7CE0118
:105990008E960E9428708B838EA59FA501969FA747
:1059A0008EA7CE018E960E9428708A838EA59FA511
:1059B00001969FA78EA7CE018E960E94287089839C
:1059C0000C811D812E8130E0F901E459F84F13302C
:1059D00018F4AF01319703C0A9014659584F9F01F0
:1059E0003695279536952795CF0160E971E00E949D
:1059F0009D76260F371F2C5F3F4FCF0164E670E086
:105A00000E949D76261B370B67E1169FC00111246B
:105A100069E070E00E94B176400FCB01840F911DC8
:105A2000820F931F67E070E00E949D768F834DC0C8
:105A30008EE10E94A83092C11F8386E49DE09FA75B
:105A40008EA7CE018E960E9428708D838EA59FA56D
:105A500001969FA78EA7CE018E960E9428708C83F8
:105A60008EA59FA501969FA78EA7CE018E960E9418
:105A700028708E838EA59FA501969FA78EA7CE0125
:105A80008E960E9428708B838EA59FA501969FA756
:105A90008EA7CE018E960E9428708A838EA59FA520
:105AA00001969FA78EA7CE018E960E9428708983AB
:105AB0008091590D8D3449F48B818C3009F41B820F
:105AC0008091580D803509F438CF8D8181508D83B8
:105AD0009E81903510F49C599E839C8191509F31FA
