:100000000C9481050C94BE050C94D4050C94AE059B
:100010000C94AE050C9437730C94AE050C94AE059D
:100020000C94AE050C94AE050C94AE050C94AE0584
:100030000C94AE050C94AE050C94AE050C94AE0574
:100040000C94AE050C9423760C94AE050C94AE057E
:100050000C94AE050C94AE050C94AE050C94AE0554
:100060000C94AE050C94AE050C94FB0A0C94AE05F2
:100070000C94AE050C94AE050C94AE050C94AE0534
:100080000C94AE050C94AE050C94AE050C94AE0524
:100090000C94AE050C94AE050C94AE050C94AE0514
:1000A0000C94AE050C94AE050C94AE050C94AE0504
:1000B0000C94AE050C94AE050C94AE050C94AE05F4
:1000C0000C94AE050C94AE050C94AE050C94AE05E4
:1000D0000C94AE050C94AE050C94AE050C94AE05D4
:1000E0000C94AE05CB24CF24B226D12ED12E3C27A2
:1000F000D12ED427D12ED12ED12EE2279F29D12E39
:10010000D629D12E2A2AC62A3C2BB92D06321632E0
:100110000A320E32123216322B3225321932213285
:1001200016321632333237322F322F3228320E3215
:10013000DD58C758C758E358C758C758C758C75895
:10014000C758C758C758EB58E058C758C758E7585A
:10015000C758D858E558C758E958C758DA58CA593F
:10016000C859CA59D259D259D259CF59D259D2594C
:10017000D259D259D259D259D259C259D259C65943
:10018000C059D259C459FC63A964A9640064A96424
:10019000A9643364A964A9643664A964A964566433
:1001A000A964A9643E64A964A9645964A964A964A2
:1001B0006E64A964A9648764526B946B736B0E6C54
:1001C000126C176C1B6CA56D336B0C948B560C94D6
:1001D000E3580C94330C0C94A56D0C94835F0C9431
:1001E000804B0C94455D0C94FC6E0C94CF240C94C5
:1001F00011110C94DD640C948E4C0C94AA0B0C948D
:10020000EB070C94D50F0C94D8580C943F080C9421
:10021000673B0C946F190C947C670C94D4270C9456
:1002200098340C94CB180C94153A0C94580F0C94E9
:10023000BD680C949E370C94EF130C94C5630C941A
:100240000E320C9463570C94D2590C94481D0C94A4
:10025000C6590C946B630C94736B0C94BB320C9466
:10026000ED110C949C0E0C947E500C94C8100C94C0
:10027000CA590C94B2260C94526B0C94C0590C942D
:1002800040310C94FD060C944B1C0C9404150C94FA
:10029000DA580C9473610C940D750C94F11A0C944B
:1002A00013130C9440200C9423370C94511C0C9481
:1002B0009E120C94E5580C9422140C94F1380C9472
:1002C000CF590C94511B0C94A4380C94336B0C94A0
:1002D0005E0B0C944C350C94E7580C9433640C94DE
:1002E000520F0C941E4E0C94E9580C94C55E0C945D
:1002F00029370C9443320C94E8720C944C440C94BF
:10030000C7580C940A320C94FC630C942B320C9456
:10031000D3310C94B92D0C949A5C0C941E6B0C94F4
:10032000F46F0C9487510C94A9640C9406320C94CD
:1003300071630C9436640C94B3080C943C270C94B1
:10034000B5160C94D12E0C942F320C94DE550C94CF
:1003500059640C948D080C944A5E0C949E340C9451
:10036000C80E0C9468220C94CD620C94A2530C9489
:10037000DD580C9460410C94A10E0C9407100C9461
:1003800009080C94DE070C9454690C943F190C94E2
:100390005D570C94EB380C9484210C94C4590C9444
:1003A000CB240C9481150C9437680C944E690C94F2
:1003B000176C0C9416320C94C8590C9419320C9486
:1003C0007C330C942A480C9437320C94D53B0C9413
:1003D000DC300C9406340C94DE360C9452370C94BA
:1003E0008A340C9400640C94BF630C94C3100C9476
:1003F000C1320C9473080C94CE710C944C130C9471
:1004000068740C949A400C94AA540C94D9650C947A
:10041000DC570C94B91A0C9458370C9487640C94DC
:10042000F30E0C9476330C9475190C94A6750C94F9
:10043000D3650C9446350C94B2660C9428320C9417
:1004400001080C9476670C943F5D0C94D6290C94AB
:100450003C2B0C94F8340C94AA380C9499170C94F7
:100460001B6C0C94571B0C9493170C94DB3B0C9453
:100470002D080C9425320C941F100C9412320C94FD
:10048000CD310C941A070C94622F0C940B230C940E
:1004900020350C9451140C94CE100C94085E0C94DE
:1004A0007B100C94234A0C943E640C94BD500C9425
:1004B00033320C94C62A0C940E6C0C949F290C9425
:1004C00091560C94126C0C94365F0C940D130C9492
:1004D00060230C942A2A0C9433120C94F90E0C9479
:1004E000E2270C9412580C9469520C94D80C0C947A
:1004F000E0580C9459080C9456640C94616F0C9459
:10050000C2590C94EB1A0C94C5180C94BE100C94A0
:1005100064140C941D420C94C4540C949E1B0C94B3
:10052000D2150C94E4550C9436400C9468310C941C
:1005300021320C9467730C9473600C94DC5C0C9403
:10054000BE1B0C94B81B0C94EB580C94946B0C943D
:100550000E3D0C94CB5E0C946E640C9460461F1C94
:100560001F1E1F1E1F1F1E1F1E1F22146F19A10EEC
:100570006414C810C310BE103F1951140D134B1C46
:10058000F30E04159317520FD50F01010004160145
:1005900001EB1A28035004160101B81B1201469002
:1005A000A206039E1B12012390A20A03511B235093
:1005B0004554534349494155544F535741502E4791
:1005C000454E004155544F535741502E4C53540003
:1005D0002C204352432000436F6465206578656397
:1005E00020617420004D2D572043524320726573C3
:1005F000756C743A20002078782F78782F787820DE
:1006000078783A78783A787820784D0D0053554EBE
:100610002E4D4F4E2E545545535745442E54485554
:10062000524652492E5341542E00FFE20053595373
:1006300054454DA0A0A0A0A0A0A0A0A0A000000094
:1006400000000000000000000DA0FE0DEDC6E53426
:10065000B1FEFF0000000000000A2A04FF660B4FF5
:1006600004FF6600000000000303033768009A05DA
:1006700004C55E00000404C55E009C0505365F00ED
:100680009A0505365F00030406C55E017F051883E1
:100690005F000007013F5D003603074E690000035D
:1006A00017085E00000508DD6400A901094A5E0024
:1006B00057040ACD620070040BCD6201E2030C7393
:1006C0006100DC030C736100FF030D7361000F0414
:1006D0000E73610000040F6B63000004106B630174
:1006E000000311BF6300000412BF6300000313BFC7
:1006F0006300000513BF6300000314766700000564
:10070000159A5C00F40516DC5C00000519D3650041
:100710001B041AB266000000000000009F9C03004A
:10072000B0DA04003B970400387E0400301B05005B
:100730000E8B0500309906008102180896C1180931
:10074000692E010081DD07003E391700015A0900BA
:1007500079B90A0169240B01794D0C01BCB20C0175
:1007600072B20C01EDDA0D028D3F0E0247C90E0385
:1007700040F10F047E7310045A75110420291104EE
:10078000E918110504981105F548110556131105CE
:1007900085E81105CA4E1105F6DB1105ABE411051C
:1007A000E56D1105FF301105E746110553221105CE
:1007B0006AC212060C5512065B8213075B241307EC
:1007C0002170130737D5130735F61307C1431400FB
:1007D0007048150025291600A6121900920C080071
:1007E0007D321A000000000000000000DE07010852
:1007F000EB070908EB072D0859083F08EB072D0800
:1008000073083F088D08B3080000FD0600001A07B2
:1008100080204F4B8100532053435241544348455D
:100820004482080994959697989B0103999C02032A
:100830009A022050524F54454354204F4E9D054933
:1008400044204D49534D415443489E9FA0A1A2537B
:10085000594E54415803A7BE0004464F554E44B26A
:10086000070450524553454E54B34F564552464CDB
:100870004F5720494E2007B4000B4C41524745BC0E
:100880000220002006BD000406BF00204558495341
:100890005453C0002054595045204D49534D4154A4
:1008A0004348C10C424C4F434BC2C30A20545241EF
:1008B000434B204F5220534543544F52C60C43489C
:1008C000414E4E454CC744495203C80546554C4C11
:1008D000CA4452495645040159CD0920080ACE425E
:1008E00055464645520B534D414C4CCF494D41471F
:1008F00045200020494E56414C4944E2554E4B4E4E
:100900004F574E204452495645434F4445E3434CCC
:100910004F434B20554E535441424C45FF8046496E
:100920004C458152454144825752495445832045A4
:1009300052524F5284204E4F5420854449534B20ED
:10094000864F50454E875245434F5244885041523E
:10095000544954494F4E208953454C4543544544CE
:100960008A494C4C4547414C8B20544F4F208C4E6C
:100970004F20FF2D6D323536302D61726475696EF2
:100980006F2D6D65676100534432494543205631F0
:100990002E302E306174656E746465616430009829
:1009A00034673BD53BDE3652379E374031CD31A4DC
:1009B00038AA386831203546352337EB38153A43A5
:1009C000363446696C6500464154333200010305F4
:1009D00007090E10121416181C1E44454C5345519D
:1009E00050524755535252454C43424D4449523F51
:1009F0003F3F4E41543431203731203831200101FE
:100A00000000424C4F434B5320465245452E202078
:100A10002020202020202020202020000000010174
:100A200000002020202253595354454D22202020DD
:100A30002020202020202020535953202000010472
:100A40000101000012225344324945432020202056
:100A50002020202020202220494B20324100756E8A
:100A60006B6E6F776E3A0D0A00313238535953541A
:100A7000454D310053595354454D3100756E6B6EE1
:100A80006F776E3A0D0A00130C140F170618040046
:100A9000130D140F1411004E4558540042554620B2
:100AA000455252004E4950504F4E0020554353522C
:100AB00031423A002045494352423A0020454943D9
:100AC00052413A007364636172645F696E74657267
:100AD000666163655F696E697428293A2045494DEE
:100AE000534B000D0A73643269656320312E302E3A
:100AF000306174656E7464656164302058585820A4
:100B0000230011241FBECFEFD1E2DEBFCDBF00E036
:100B10000CBF14BE0FB6F894A89580916000886150
:100B200080936000109260000FBE12E0A0E0B2E07F
:100B3000E2E7F1EF00E00BBF02C007900D92A23296
:100B4000B107D9F72FE0A2E2B2E001C01D92A533B0
:100B5000B207E1F70E94036E0C94B7780C94000082
:100B600028E039E040E8880F660F08F4842787FB07
:100B70000EF483272A95B9F78F7708952F932FB70F
:100B80002F933F938F930F92489907C02091330E74
:100B9000223011F484D101C0529A0F908F913F916D
:100BA0002F912FBF2F9118952F932FB72F933F93EE
:100BB0008F930F92499906C02091330E213011F482
:100BC00056D100C00F908F913F912F912FBF2F9141
:100BD0001895000000002A95F1F708950000089587
:100BE000489BFECF08954899FECF0895F894FC01E4
:100BF0008827992751985298489B529A499BFCCF35
:100C00002AE2E8DF09B002FA85F901FA84F92EE157
:100C1000E0DF09B002FA87F901FA86F929E1DADFA3
:100C200009B002FA81F901FA83F92EE1D2DF09B0A5
:100C300002FA80F901FA82F92EE1CBDF39B12DE019
:100C4000C9DF529A28E1C6DF8095308378940895F1
:100C50003AB1307F00FA31F901FA32F9069406947C
:100C60003AB90895F89453E0442309F054604F775B
:100C7000662321F06AB1607F646003C06AB1607F5F
:100C8000626052985198AADF082E009489B187704B
:100C90008517E1F38170B9F022E19DDFD9DF23E10F
:100CA0009ADFD6DF25E195DFD3DF23E194DFD0DFC4
:100CB000442349F428E18DDF6AB990DF89B180FFD0
:100CC00002C082FDFBCF80958170789408954A9987
:100CD000FECF80952AB1207F2AB94A9BFECF7EDFC6
:100CE00044E03AB1307F87FB31F986FB32F9880F57
:100CF000880F25E46FDF3AB971DF4A9591F72FE34A
:100D00006ADF2AB1207F22602AB908954A99FECF6E
:100D10002AB1207F2AB9FC014A9BFECF2BE05BDF82
:100D2000019044E000942CE155DF3AB1307F07FA9E
:100D300031F906FA32F9000C000C2AE34ADF3AB91D
:100D40002AE049DF4A9589F727E143DF6A9541F7B1
:100D50002BE141DF2AB1207F22602AB908953AB100
:100D6000307F00FA31F901FA32F93AB90694069463
:100D7000089539B132FB80F931FB82F90895519A17
:100D8000489B07C04A99FCCF5198489B02C04A9B98
:100D9000FCCF0895F894FC01519A29E11CDF54E03E
:100DA0000190009444E0DBDF27E114DF4A95D9F796
:100DB00015DF00C05A95A1F73AB1307F3AB978945F
:100DC0000895F894882728E105DF5298499BFECFC3
:100DD00029E201DFCEDF880F2CE1FDDECADF82953C
:100DE000869529E1F8DEC5DF880F24E1F4DEC1DF56
:100DF000529A7894809599270895F894082E5298DD
:100E00004999FECF499BFECF2FE1E3DEA8DF2DE01D
:100E1000E0DEA5DF2DE0DDDEA2DF2DE0DADE9FDF04
:100E200020E1D7DE5198529AD9DE89B18095817040
:100E300078940895F894082E52984999FECF499BCA
:100E4000FECF2FE1C6DE8BDF23E1C5DE88DF23E1A5
:100E5000C2DE85DF23E1BFDE82DF20E1BADE51980A
:100E6000529ABCDE89B1809581707894089506D03D
:100E70008093390E03D08093360E089524E049996B
:100E8000FECF880F39B132FB80F9499BFECF880F26
:100E900039B132FB80F92A9591F78095089506D0F3
:100EA0008093390E03D08093360E089522E0829508
:100EB000869599DE5EDF880F93DE5BDF2A95B9F7B2
:100EC00080950895082E009422E049DF8CDE47DFEC
:100ED00087DE2A95D1F70895F8949FEF88274FDF92
:100EE000489B14C02EE176DE44DF880F24E173DED8
:100EF00040DF829586952EE16DDE3BDF880F24E191
:100F00006ADE37DF23E367DE9927809578940895BA
:100F1000F894529A489B16C04999FCCF5298489B26
:100F200011C0499BFCCF082E009484E02EE053DED4
:100F30002CE04FDE14DF8A95D9F725E14BDE51987E
:100F400052984CDE7894089507FA31F905FA32F98F
:100F50003AB908955298519841DE3AB1307F489B92
:100F600017C04A9BFCCF082E25E134DEEDDF000CD4
:100F700024E131DEE9DF8295082E23E12ADEE4DF79
:100F8000000C24E128DEE0DF23E325DE8827089536
:100F900081E008958827499BFECF4999FECF25E23D
:100FA0001ADE39B131FB83F932FB84F921E212DE1A
:100FB00039B131FB85F932FB86F90895EBDF2EE17B
:100FC00008DED7DE880F24E206DED3DE2BE103DE67
:100FD000809599270895DEDF22E1FBDDCADE880FC8
:100FE00026E1F7DDC6DE2BE1F6DD80959927089531
:100FF00051985298F3DD4999FECF3AB1307F032ED4
:101000000895F6DF83FB31F981FB32F929E2E3DD54
:1010100007C0EEDF83FB31F981FB32F921E1D9DD35
:101020003AB9302D82FB31F980FB32F926E1D2DD6D
:101030003AB98095302D84FB31F985FB32F928E1EE
:10104000C8DD3AB9302D86FB31F987FB32F92BE147
:10105000C0DD3AB928E3BEDD08958095C9DF082ECA
:101060002AE0B8DD7CDE2BE0B6DD79DE23E1B3DDFE
:1010700076DE20E1AFDD73DE2DE1ABDD0895B8DF74
:1010800007D082952BE0A6DD03D028E3A3DD0895E9
:10109000302D83FB31F981FB32F920E19ADD3AB939
:1010A000302D82FB31F980FB32F921E294DD3AB92F
:1010B00008958827499BFECF4999FECF26E289DD16
:1010C00058DE880F24E187DD54DE8295869521E283
:1010D00082DD4FDE880F2CE17EDD4BDE23E37BDDFE
:1010E0009927809508958827499BFECF4999FECF7F
:1010F00029E270DD3EDE880F26E16BDD3ADE829567
:10110000869526E267DD35DE880F24E264DD31DE78
:1011100023E361DD9927809508958827499BFECFB9
:101120004999FECF25E257DD39B131FB80F932FB19
:1011300081F929E14FDD39B131FB82F932FB83F9C5
:1011400029E148DD39B131FB84F932FB85F929E128
:1011500041DD39B131FB86F932FB87F92DE139DD0B
:10116000809599270895809543DF082E2AE032DD87
:10117000F6DD2DE02EDDF3DD25E12BDDF0DD25E1D3
:1011800028DDEDDD23E227DD0895F8948095082E13
:1011900051984A9BFECF27E01CDDE1DD2DE019DDF3
:1011A000DEDD2DE016DDDBDD2DE013DDD8DD21E118
:1011B00010DD5298519A78940895F89488275198A0
:1011C0004A99FECF4A9BFECF2CE104DDD2DD880F89
:1011D00024E101DDCEDD8295869523E2FADCC9DDCE
:1011E000880F24E1F8DCC5DD28E0F5DC519A78941D
:1011F000809599270895F894082E51985298499B04
:10120000FECF22E1E7DCABDD2DE0E3DCA8DD2DE065
:10121000E0DCA5DD2DE0DDDCA2DD28E0DBDC5198A3
:10122000529A2DE0D6DC7894089582E085BD83EC57
:1012300099E0909389008093880010928500109225
:101240008400109280008BE080938100EFE6F0E054
:101250008081826080830895809122028F5F8093D5
:101260002202809122028436A9F48091000290919A
:101270000102A0910202B09103020196A11DB11DCD
:101280008093000290930102A0930202B0930302A4
:101290001092220208958F929F92AF92BF92CF92A6
:1012A000DF92EF92FF92CF93DF93EC01F89460917D
:1012B00000027091010280910202909103027894E1
:1012C0002CE3C22ED12CE12CF12CA70196010E9417
:1012D0007B776883CA01B901A70196010E947B77D9
:1012E0006983CA01B90128E130E040E050E00E9482
:1012F0007B776A8369017A01CA01B9016C5F7F4F0C
:101300008F4F9F4F27E030E040E050E00E947B7716
:101310006E8322EB37E0C90183709927892B81F412
:10132000C90164E670E00E945377892B71F5C90109
:1013300060E971E00E945377892B09F46DC00CC0FD
:101340008DE6C81681E0D806E104F10428F18DE6A7
:1013500091E0A0E0B0E012C06DE6C61661E0D606EE
:10136000E104F104C8F0C90160E971E00E9453771B
:10137000892B69F78EE691E0A0E0B0E0C81AD90A9F
:10138000EA0AFB0A2F5F3F4FC6CF8EE6C81681E000
:10139000D806E104F10470F72C562D83822F64E601
:1013A0000E944777392F822F90E060E971E00E9418
:1013B000677740E050E0FA01E25AFA4F8490912CAE
:1013C000A12CB12CC814D904EA04FB04B8F0E491B0
:1013D000CE1AD108E108F1084130510561F4622FBD
:1013E000637049F4311102C0009729F461E0C61A14
:1013F000D108E108F1084F5F5F4FDDCF4C83C39404
:10140000CB82DF91CF91FF90EF90DF90CF90BF9094
:10141000AF909F908F9008956EE6C61661E0D60655
:10142000E104F10408F09FCFB7CF8F929F92AF9263
:10143000BF92CF92DF92EF92FF921F93CF93DF93F1
:10144000EC018C812D8130E02459384F1FEF180FAB
:1014500021F41BE0180F21503109C880D12CE12C58
:10146000F12C80E8C81A80E4D80A8EE4E80A89E7FB
:10147000F80AF901F695E795F695E795C90160E94F
:1014800071E00E945377E60FF71F8B81E80FF11D83
:10149000C90164E670E00E945377E61BF70B4FE644
:1014A00051E0149FC001159F900D11246CE070E075
:1014B0000E946777E60FF71FADE6B1E00E94A577BF
:1014C0009B01AC012E0F3F1F411D511DA8E1B0E053
:1014D0000E94B4772A814B015C01820E911CA11CF1
:1014E000B11CA5019401ACE3B0E00E94B47729815E
:1014F0004B015C01820E911CA11CB11CA501940141
:101500000E94B477C60ED71EE81EF91EF894C0924A
:101510000002D0920102E0920202F092030278945B
:10152000DF91CF911F91FF90EF90DF90CF90BF9010
:10153000AF909F908F90089582E08093280F089538
:101540001DBC811102C080E501C083E58CBD0895FA
:1015500095B1907F9B6095B994B1907F976094B955
:101560001DBC811102C080E501C083E58CBD8DB535
:101570008EB508958EBD0DB407FEFDCF8EB50895CE
:101580008FEF8EBD0DB407FEFDCF8EB50895680FA9
:10159000791F8617970789F0411103C0FC0120814C
:1015A00001C02FEF2EBD0DB407FEFDCF2EB5442395
:1015B00011F0FC0120830196ECCF089585B7806877
:1015C00085BF85BF91E080E80FB6F89480936100F5
:1015D000909361000FBE089583B7817F83BF83B767
:1015E000816083BF089588950895F894E0E0F0E065
:1015F0001995789408951F920F920FB60F921124A7
:101600000BB60F922F933F938F939F93EF93FF937C
:10161000209125023091260280912302909124028C
:101620002817390719F1E0912502F0912602E95DAA
:10163000FD4F80818093C600809125029091260203
:1016400001969927909326028093250220912502E6
:1016500030912602809123029091240228173907A5
:1016600029F48091C1008F7D8093C100FF91EF919B
:101670009F918F913F912F910F900BBE0F900FBEB6
:101680000F901F90189520912302309124022F5F14
:101690003F4F3327E1ECF0E090819F7D9083A09154
:1016A0002302B0912402A95DBD4F8C933093240294
:1016B000209323028081806280830895CF93C82F76
:1016C0008A3019F48DE00E94430B8C2F0E94430B4B
:1016D00080E090E0CF910895CF93C82F82958F70CE
:1016E0008A3010F4805D01C0895A0E94430B8C2F10
:1016F0008F708A3010F4805D01C0895A0E94430BBC
:10170000CF910895209125023091260280912302E5
:101710009091240228173907A9F70895CF93DF93F2
:10172000FC018491EF012196882321F00E94430B54
:10173000FE01F7CFDF91CF9108958DE00E94430B1A
:101740008AE00E94430B0895A0E0B0E0EAEAFBE0E3
:101750000C94C5775B016A018C01060F171FC0E06E
:10176000D0E0CE018A0D9B1DCC15DD0508F059C0D7
:10177000892F0E946C0B8C2F8A0D0E946C0B8CE7BA
:101780000E94430B80E20E94430B480180E1880ED7
:10179000911C7801CE01801B910B8E0D9F1D8C1525
:1017A0009D0528F4F70180810E946C0B06C080E241
:1017B0000E94430B80E20E94430B80E20E94430B95
:1017C000FFEFEF1AFF0AE814F90421F78CE70E94F3
:1017D000430BE12CF12CC7018C0F9D1F8C159D052F
:1017E00078F448018FEF881A980AF801808190EE0A
:1017F000980F9F3508F08EE20E94430B840103C0CE
:1018000080E20E94430BFFEFEF1AFF0A80E1E81627
:10181000F10409F78CE70E94430B0E949D0B609630
:10182000A0CFCDB7DEB7ECE00C94E1771092C50005
:1018300088E08093C40082E08093C00088E18093B8
:10184000C10086E08093C20084E092E09093320F62
:101850008093310F109226021092250210922402DA
:1018600010922302089580E00895CF93DF9390E3D0
:10187000899FF0011124DF01AE55B44F8C9180FD9A
:1018800015C0E856F44F9F012E5F3F4F8EE2E901ED
:1018900019928A95E9F78C9181608C9384E6848310
:1018A00083E39CE096878587908B8787DF91CF9134
:1018B0000895E8E9FBE080E591E0DF019C011D92DD
:1018C00021503040E1F787E293E09183808387E203
:1018D00094E091AB80AB87E295E09093F90B809315
:1018E000F80B87E296E09093290C8093280C87E20E
:1018F00097E09093590C8093580C87E298E090936E
:10190000890C8093880C8EEC9DE09093B90C8093A9
:10191000B80C8FE08093BC0CE2ECFCE080818D6021
:10192000806280838CED90E39093C60C8093C50C0D
:1019300083E39CE09093C80C8093C70C0895CF93E9
:10194000DF9380E090E020E3289FE001299FD00D05
:101950001124FE01EE55F44F208120FD06C00E94A7
:10196000350CCE018856944F09C0019686309105FA
:1019700051F786E40E94D73080E090E0DF91CF916C
:1019800008950E949F0C009761F0FC011482209141
:10199000090D2F5F2093090D20910201277F2093CD
:1019A00002010895A0E0B0E0E8EDFCE00C94C977F6
:1019B000182F20E030E000E090E080E3829FF0010B
:1019C000839FF00D1124EE55F44F808180FD07C0F8
:1019D000911101C0022F9F5F911302C008C090E0D7
:1019E0002F5F3F4F2630310541F7911750F080E3CC
:1019F000089FE0011124C655D44FE02EE10EF02ED1
:101A000006C086E40E94D73080E090E03BC0C02E44
:101A1000D12CFE14E9F08F2D0E94350C8091090D18
:101A20008F5F8093090DFE013E971082CE014E9686
:101A30009C838B8320E32C9DC0012D9D900D112450
:101A40008856944F9A8389831883F394E096DFCF66
:101A500080910201877F80930201C601810F911D51
:101A6000019720E3289FF001299FF00D1124E856EB
:101A7000F44F168A158A2C9DC0012D9D900D1124BE
:101A80008856944FCDB7DEB7E8E00C94E577FC01BB
:101A9000892BC1F024812F30A9F0928590FF12C0CC
:101AA0009E7F928794FF05C08091090D805180939D
:101AB000090D243628F48091090D81508093090D79
:101AC0000E94E76D0895CF93DF93EC01EF85F889CD
:101AD0001995CE010E94470DDF91CF910895EF92A5
:101AE000FF920F931F93CF93DF93F82EC8E9DBE0AB
:101AF00000E010E0E12C80E3809FF001819FF00D79
:101B00001124EE55F44F808180FF27C0F1FC03C003
:101B10008C81843610F5F2FC0BC080E3809FF001CD
:101B2000819FF00D1124EE55F44F808186FD15C084
:101B3000F0FE10C0E1100BC0EF85F889CE011995B9
:101B400021E030E0811105C020E030E002C021E05A
:101B500030E0E22ECE010E94470D0F5F1F4FE0964E
:101B60000630110541F68E2DCDB7DEB7E6E00C94B8
:101B7000E777ECE9FBE040E050E090E3949F9001D0
:101B8000959F300D1124D901AE55B44F9C9190FF13
:101B900007C09081981304C0C9018856944F0895D6
:101BA0004F5F5F4FF0964730510539F780E090E086
:101BB0000895FC01928594FD0CC0906192878091FC
:101BC000090D805F8093090D809102018F7E8093C3
:101BD00002010895FC01928594FF0FC09F7E9287B9
:101BE0008091090D80518093090D82958F7029F4A1
:101BF0008091020180618093020108955FEF560F8A
:101C00002BE5829FC0011124FC01EE53F14F20818E
:101C10002F77842F90E0213009F442C02430D1F195
:101C2000533228F05CED560F2BEA32E002C020E080
:101C300030E0513130F445E1549F800D911D112465
:101C400033C0652F70E0583158F461517109E3E1F8
:101C5000E69FA001E79F500D11244B595E4F17C01E
:101C60005E3158F468517109E2E1E69FA001E79FF7
:101C7000500D112446515E4F0AC06E517109E1E1C9
:101C8000E69FA001E79F500D11244A5A5D4F840F33
:101C9000951F0AC028E2529F800D911D11240895BE
:101CA000252F30E0322F2227820F931F08950E94A4
:101CB000FE0DA0E0B0E06627782F892F9A2F0895B7
:101CC0002BE5829FC0011124FC01EE53F14F80816E
:101CD0008F77813019F0843081F003C080E091E08B
:101CE0000895643208F06352623150F0693158F05F
:101CF0006F3160F081E190E0089588E290E008950E
:101D000085E190E0089583E190E0089582E190E01C
:101D10000895E0912A09F0912B090190F081E02DBE
:101D2000828380958383DB018C91848311968C91CF
:101D3000858380EC868308958FE10E94D73081E00F
:101D400008958FE10E94D7300895EF92FF920F938C
:101D50001F93CF93DF93F82EE90180E091E0F90122
:101D60009C01119221503040E1F78FEF89838F2D34
:101D70000E94570EAB01BC01E12C00E011E09E0176
:101D80008F2D0E94443DCDB7DEB7E6E00C94E77797
:101D9000EF92FF920F931F93CF93DF93EC019A85FD
:101DA000892F827091FF1AC0F9888091700EF81601
:101DB000A0F44B896A898F2D0E94570EAB01BC019C
:101DC00028813981EE24E39400E011E08F2D0E94F8
:101DD000443D9A859D7F9A8701C080E0CDB7DEB7EC
:101DE000E6E00C94E777A2E0B0E0E9EFFEE00C94C7
:101DF000C977FC01DB018C91808315966C91159756
:101E0000618316964C91169742831382CC908BE592
:101E1000C89ED0011124AE53B14FDC9081E0D8129E
:101E200015C07F018C2D0E94570EAB01BC0102E052
:101E300010E09E012F5F3F4F8C2D0E94083D8111C5
:101E400006C08981F70181838A818283D12C8D2DFF
:101E50002296E8E00C94E577FF920F931F93CF93BF
:101E6000DF93F82EEB01498168810E94570E2A8189
:101E700030E2239FA00111248A01550F220B330B5E
:101E8000AB01BC01400F511F621F731F00E210E045
:101E900028EE3CE08F2D0E94083DCDB7DEB7E5E08F
:101EA0000C94E877A2E0B0E0E8E5FFE00C94C97795
:101EB0007C01FC01C0808BE5C89EF0011124EE532B
:101EC000F14FD080E1E0DE1621F0C7010E94FA3C1C
:101ED0002BC0FB018081811104C0F701D582D6821D
:101EE00036C08F3531F5FB018181811122C0F701A8
:101EF000468165818C2D0E94570EAB01BC014E5D61
:101F00005F4F6F4F7F4F02E010E09E012F5F3F4F0A
:101F10008C2D0E94083D81111BC08981F701811120
:101F200005C080810E94C63CD82E12C085838A815C
:101F30000DC0645E7F4F8C2D0E942C0F811108C054
:101F40008091EB0CF70185838091EC0C8683D12C7A
:101F50008D2D2296E8E00C94E577EF92FF920F9397
:101F60001F93CF93DF93F82EEB01E42E4981688114
:101F70000E94570E0A8120E2029F80011124012E47
:101F8000000C220B330BAB01BC01400F511F621F31
:101F9000731F00E210E028EE3CE08F2D0E94443DCC
:101FA000CDB7DEB7E6E00C94E777EF92FF920F93A0
:101FB0001F93CF93DF937C018A01EB016C96BE01E6
:101FC000FC0180810E942C0F811116C040E150E07D
:101FD00060EA70E08DEE9CE00E944978F801ADEE79
:101FE000BCE08191882311F08D93FBCF41E0BE01CD
:101FF000F70180810E94AD0FCDB7DEB7E6E00C940B
:10200000E777A7E0B0E0E7E0F0E10C94CF77CE010E
:1020100001960E944B09E8EEFCE08E8164E60E9486
:102020004777918F8D818F5F828F8C81838F8B819A
:10203000848F8A81858F2796E2E00C94EB77EF926C
:10204000FF920F931F93CF93DF93EC01E881F98107
:102050001082E881F9818A8181836D894E898F8917
:10206000988D0196988F8F8B611102C011E037C057
:10207000FC888F2D0E94570EAB01BC01288139814D
:10208000EE24E39400E011E08F2D0E94443D811185
:10209000EDCF8E010F5E1F4FB8018C890E942C0F6F
:1020A0008111E4CF8091EA0C80688093EA0C8F89DB
:1020B0008093060D8F89988D9093070D0E940110D3
:1020C00041E0B8018C890E94AD0F182F8111CECF4D
:1020D00083E39CE0988B8F87CE010E94470D812F70
:1020E000CDB7DEB7E6E00C94E777A0E0B0E0EBE731
:1020F000F0E10C94C877FC017B01B42EC22FD08193
:10210000CD2ED12C8BE5D89FD0011124AE53B14FE9
:102110008C91813011F4468101C040E065818D2FA2
:102120000E94570E0C2F10E02BE52C9DF0012D9DE9
:10213000F00D1124ED53F14FEB0DF11D2081AB019A
:10214000BC01420F511D611D711D97018D2F0E9411
:10215000083D81110DC09FEF9C0FF701E90FF11DA4
:102160002081203A11F420E220839150B0F701C081
:1021700081E0CDB7DEB7E9E00C94E47725E044E0F8
:102180000E947510089520E143E00E9475100895A3
:10219000A8E0B0E0EEECF0E10C94CB777B019BE59E
:1021A000899FF0011124DF01AE53B14F9C91913012
:1021B00071F400E110E09B0144E051E060E070E068
:1021C00098870E94083D9885882399F01FC08983CD
:1021D000E456F14F86E0DE01129601900D928A9549
:1021E000E1F7CE0101960E94C310882311F091E01F
:1021F0000DC0F701108A3F96EE15FF0531F0808182
:10220000803219F410823197F7CF90E0892F289609
:10221000E6E00C94E777A0E0B0E0E1E1F1E10C94B6
:10222000C977C82E79018BE5C89EF0011124EE53C1
:10223000F14F80818F77833029F08430E9F081304D
:1022400089F42AC0643270F041110AC070E064520F
:102250007109C62FCC0FC60FD0E025E3D22E27C0C0
:10226000C9EB05C0C1E04111C0E0660F660FC60FA3
:10227000D0E092E1D92E1BC0693208F04FC0D1E006
:10228000C1E04111C0E0C65F862F880F680F660F5E
:10229000C60F88E2D82E0BC0D62FD695D695D695E8
:1022A000DE5FC62FC295CC0FC07EDD24D394A091F3
:1022B0002A09B0912B0951968C9151978C110AC023
:1022C00052969C9152979D1105C053969C9153979D
:1022D0009D17B9F0E0912809F0912909309709F18B
:1022E000F0932B09E0932A09B0932909A0932809B8
:1022F00081898C1139C082898D1136C083898D13F3
:1023000033C0E0912A09F0912B09808191818C0FD3
:10231000911DF7019183808380E054C06852D2E020
:10232000AFCF8F3F09F10E949F0CFC0190932909C8
:1023300080932809892B09F441C085E684838FEFB7
:10234000818B88EC9EE0908B878782858064828772
:1023500080912A0990912B09F0932B09E0932A0987
:10236000909329098093280980912A0990912B093B
:10237000DC011F96ED91FC915097199581111CC0BD
:102380004D2F6D2D8C2D0E94570EAB01BC01E0919D
:102390002A09F0912B092081318100E011E08C2D78
:1023A0000E94083D81110EC0E0912A09F0912B098D
:1023B000C18AD28AD38BA5CF81E004C080E00E947D
:1023C000D730D2CFCDB7DEB7E8E00C94E577A2E006
:1023D000B0E0EDEEF1E10C94CD77182F042F1A82C6
:1023E00019829E012F5F3F4F40E00E940B11811127
:1023F0002FC08BE5189FF0011124EE53F14F30816F
:10240000202F26952695269589819A810770FC01B3
:10241000E20FF11D313091F42081822F90E020E80D
:1024200030E0002E02C0359527950A94E2F7282364
:10243000392381E0232B69F480E00BC0808190E098
:10244000002E02C0959587950A94E2F7817001C02D
:102450008FEF2296E4E00C94E977A2E0B0E0E3E3AA
:10246000F2E10C94CC77082FF62E142F0E94E7117E
:1024700087FF02C081E058C0811102C080E054C0D3
:102480009E012F5F3F4F40E06F2D802F0E940B1168
:102490008111F0CFE0912A09F0912B099285926089
:1024A00092879BE5099FF0011124EE53F14F2081A3
:1024B000912F969596959695E981FA811770E90F77
:1024C000F11D213069F420E830E0012E02C035957D
:1024D00027950A94E2F7209590812923208324C030
:1024E00021E030E0012E01C0220F0A94EAF7209586
:1024F0008081282320839E012F5F3F4F41E06F2D75
:10250000802F0E940B118111B5CFE981FA81908152
:10251000992309F4B3CF91509083E0912A09F09167
:102520002B099285926092872296E5E00C94E877D9
:10253000A2E0B0E0EEE9F2E10C94C977F82EE62EC5
:10254000042F0E94E71187FF02C011E061C08823B9
:1025500011F010E05DC09E012F5F3F4F40E06E2DF7
:102560008F2D0E940B11182F8111EFCFE0912A09B6
:10257000F0912B098285826082878BE5F89EF001BD
:102580001124EE53F14F9081802F86958695869584
:10259000E981FA810770E80FF11D913061F480E85C
:1025A00090E0002E02C0959587950A94E2F79081FD
:1025B000892B80832DC081E090E0002E01C0880F20
:1025C0000A94EAF79081892B80839E012F5F3F4F09
:1025D00041E06E2D8F2D0E940B11182F8111B5CF68
:1025E000C980DA80F60100816E2D8F2D0E94600E69
:1025F000202F30E02817390708F0ABCF0F5FF60126
:102600000083E0912A09F0912B09828582608287FC
:10261000812F2296E8E00C94E577A1E0B0E0E3E1B9
:10262000F3E10C94CB778C01F62EE42E422FEE20B2
:10263000A1F08BE5689FF0011124ED53F14F8281E9
:102640008E1558F06E2D8F2D29830E94600E4981C2
:10265000242F30E02817390728F06E2D82E40E94DD
:10266000F72F10C06E2D8F2D0E94570EAB01BC01AD
:10267000F80120813181EE24E39400E011E08F2DF8
:102680000E94443D2196E6E00C94E777A0E0B0E09C
:10269000ECE4F3E10C94C577C82FD62FF42E590142
:1026A0004801662391F08BE5C89F80011124F80151
:1026B000ED53F14F8281861740F08C2F0E94600EFF
:1026C000CF2CD12CC816D90620F04F2D6D2F8E2D72
:1026D0006AC0F801EE53F14F108117FF6DC0809171
:1026E0000A0D8C1305C080910B0D8D1709F450C095
:1026F00048E250E061E070E08CE09DE00E944978A3
:10270000812F8F77833011F1843089F1823009F085
:1027100060C06D2F8C2F0E94600E8C0140E06D2FE9
:102720008C2F0E94FE0DAC0160E070E055556D4F9E
:102730007F4F2CE03DE08C2F0E94083D823008F056
:1027400048C0C0930A0DD0930B0D22C06D2F8C2F63
:102750000E94600E8C0140E06D2F8C2F0E94FE0DB8
:10276000AC0160E070E05A5A6A4F7F4FE2CF6D2FA4
:102770008C2F0E94600E8C0140E06D2F8C2F0E94E8
:10278000FE0DAC0160E070E05058634F7F4FD1CF39
:10279000F601E65FF24F82819EEF980F9A3030F497
:1027A0004F2D6D2F8E5E0E94F72F13C08F3021F4B6
:1027B0008AE40E94D7300DC04F2D6D2F8C2F0E94C0
:1027C000570EAB01BC01840195018C2F0E94083D7E
:1027D00001C082E0CDB7DEB7ECE00C94E177EF9278
:1027E0000F931F93CF93DF93EC01E881F9818081F0
:1027F0008D8B81818E8B83E4E82E00E011E09F01B8
:10280000418160818C890E944613882329F0CE0182
:102810000E94470D81E010C092E09B83E881F9811E
:1028200020819A85211104C021812A83906203C0EE
:102830002FEF2A839F7D9A87DF91CF911F910F9170
:10284000EF9008950F931F93CF93DF938C01EA01CC
:10285000645E7F4FFC0180810E942C0F81111CC09F
:10286000E881F9818091EB0C8083E881F981809186
:10287000EC0C8183F80180818C8B8A852FEE33E10B
:102880003E872D872CE93EE03C872B87846080645F
:102890008A87CE010E94EF13DF91CF911F910F9194
:1028A0000895EF920F931F93FC01862F642F422F00
:1028B0002081318192E4E92E00E011E00E9446136C
:1028C0001F910F91EF900895AF92BF92CF92DF9238
:1028D000EF920F931F93CF93DF931F921F92CDB769
:1028E000DEB76C015B018CE1A80EB11CB501F601ED
:1028F00080810E942C0F882311F08FEF29C08091D6
:10290000EB0C89838091EC0C8A834A816981F60102
:1029100080810E94981283E4E82E02E010E09E017C
:102920002F5F3F4F4A816981F60180810E944613E3
:102930008111E3CF89818111E8CF1092EA0C41E047
:10294000B501F60180810E94AD0F8111D6CF81E0E3
:102950000F900F90DF91CF911F910F91EF90DF902B
:10296000CF90BF90AF900895EF920F931F93CF93A6
:10297000DF93EC018B818830B1F483E4E82E02E030
:1029800010E028EE3CE04A81698188810E9446136C
:10299000811124C08091E80C882379F1898380918A
:1029A000E90C8A831B821981112399F008818BE538
:1029B000089FF0011124ED53F14F8281811748F0F7
:1029C000612F802F0E94600E2A8130E0281739077E
:1029D00038F04A81612F83E40E94F72F81E00EC016
:1029E000BE016F5F7F4F802F0E942C0F8111F6CFA9
:1029F0008B818F5F8B8380E001C08FEFDF91CF9160
:102A00001F910F91EF9008950F931F93CF93DF9332
:102A10008C01EB01C8010E94B414811167C0809140
:102A2000EA0C8823B9F38DE2FE0111928A95E9F749
:102A300084E08B8F9091EA0C9058892F87708730B3
:102A400009F4987F998BF80181819281A3818C8F01
:102A50009D8FAE8F8E8D81508E8F2091060D80912F
:102A6000070D90E0982F8827820F911D9B8B8A8BF2
:102A70008FEF8C8B80E1EDEEFCE0DE0101900D929A
:102A80008A95E1F78FE0FE01E80FF11D9081903A01
:102A900009F410828150B8F78091050D6CE30E9413
:102AA0004777998F8091040D68E10E944777988F4E
:102AB0008091030D90E001976FE170E00E946777CD
:102AC0008F5F8F8B8091020D90E001976CE070E03A
:102AD0000E9467778F5F8E8B8091010D64E60E9464
:102AE0004777903508F49C599D8B80E0DF91CF911A
:102AF0001F910F910895A2E0B0E0E1E8F5E10C9498
:102B0000CF771A821982611103C080E090E040C043
:102B10009BE5899F90011124F901ED53F14F9281BA
:102B2000961798F3F901EE53F14F90819F779E012C
:102B30002F5F3F4F41E0913019F50E940B11811139
:102B4000E4CFE981FA81BF01605E7F4F40E050E051
:102B50002191922F969595752575920F892F8373E4
:102B6000969596959373980F892F8F7092959F7075
:102B7000980F490F511DE617F70751F7CA0108C012
:102B80000E940B118111C1CFE981FA81808190E00F
:102B90002296E2E00C94EB77A1E0B0E0E2EDF5E103
:102BA0000C94C577D82E4B017A01A82EB12C8BE559
:102BB000D89E80011124F801EE53F14F8081FB0172
:102BC0006081813079F5162F612F8D2D0E947B1544
:102BD000F4012081892B91F41F5F8BE58A9DF00120
:102BE0008B9DF00D1124ED53F14F8281181711F0D8
:102BF000111101C011E01213E7CF26C0121303C058
:102C0000F701008101C000E0402F612F8D2D0E944F
:102C1000E711811102C00F5FF7CFF4011083F701B4
:102C2000008398C00D53114FF8018081681311C0C3
:102C30008D2D0E947B15892B49F48091320E8111D4
:102C400003C088E40E94D73081E085C0F801C680C7
:102C500002C0F801C58020E0233008F040C0F40134
:102C600060818D2D29830E947B152981892BD1F5C7
:102C7000F4018081F8019081891710F4815013C00C
:102C800031E0380FF40130839BE59A9DF0019B9D64
:102C9000F00D1124EE53F14F90819F77933029F47A
:102CA000353319F48E5FF4018083F4018081811142
:102CB00008C0F80180818F5FF4018083F7011082E2
:102CC0002F5FF4019081F8018281891728F68081B5
:102CD0008150F4018083F70110822F5FBDCF233034
:102CE00009F4ABCFF70190811C2D190F1083F4016B
:102CF00060818D2D0E94600E212F30E0281739074A
:102D000040F0181B19F4F701108203C01150F701AD
:102D1000108303E6F7014081F40160818D2D0E944C
:102D2000E7111816A4F00150A8F0F701208111E076
:102D3000120F1083F40160818D2D0E94600E212FEF
:102D400030E02817390730F3F7011082E3CF002372
:102D500009F473CF80E02196ECE00C94E177A0E0D9
:102D6000B0E0E5EBF6E10C94C7776C01EB01BC0138
:102D7000CE010E94F30ECE010E94B414181614F472
:102D800081E0CCC0811108C08091EA0C8111F3CFA1
:102D90009B8191509B83C2C019810A815E01BFEF64
:102DA000AB1ABB0AAE014E5F5F4FB501F6018081E1
:102DB0000E94CC158111E4CF89818093E80C8A812F
:102DC0008093E90CD601FC90402F612F8F2D0E943B
:102DD000570EAB01BC01E12C02E010E028EE3CE014
:102DE0008F2D0E94443D8111CBCF4A816981F6012C
:102DF00080810E942D128111C3CFD601FC90BBE5CA
:102E0000FB9EF0011124EE53F14F8081813061F07F
:102E100080E2E8EEFCE0DF011D928A95E9F78FEF92
:102E20008093E90C10E068C0F601468165818F2D22
:102E30000E94570EAB01BC014C5D5F4F6F4F7F4F3F
:102E400003E010E028EE3CE08F2D0E94083D811148
:102E500097CF6091E80C6623D9F2D601FC9040919F
:102E6000E90C8F2D0E94570E2091EA0C022F10E0E2
:102E700020E030E0045E1F4F2F4F3F4FAB01BC01FD
:102E8000400F511F621F731F02E010E02BEE3CE069
:102E90008F2D0E94083D811173CF8091EB0C909192
:102EA000EC0C01969093EC0C8093EB0CF601F08007
:102EB0004091E90C6091E80C8F2D0E94570E2091F3
:102EC000EA0C022F10E020E030E0045E1F4F2F4F8D
:102ED0003F4FAB01BC01400F511F621F731FEE2417
:102EE000E39402E010E02BEE3CE08F2D0E94443D85
:102EF000882309F48DCF44CF1B8340E0B501D60170
:102F00008C910E94AD0F81113BCF1092E90C1F5F95
:102F1000183091F79FEF9093E90C1B82CDB7DEB785
:102F2000EAE00C94E377A5E1B0E0E9E9F7E10C947D
:102F3000C5776C018B01DC01EC91BBE5EB9FF001E7
:102F40001124EE53F14F8081813011F08FE11FC0C9
:102F50000E94C10C5C01892B09F413C1BE016F5F93
:102F60007F4FC6010E94AF1681110BC1F60185810A
:102F70008D8B86818C8BAE014C5E5F4FBE016B5E8C
:102F80007F4F80810E94CC15882321F088E40E9425
:102F9000D730F7C04C896D89D6018C910E942D12D3
:102FA0008111EFC08D898B8B8C898A8BAE014E5E2F
:102FB0005F4FBE016D5E7F4FF60180810E94CC1590
:102FC000882351F088E40E94D7304C896D89D6015E
:102FD0008C910E949812D5C04A896B89F601808134
:102FE0000E942D128111CDC0D501ED91FC9180E0A0
:102FF00091E0DF019C011D9221503040E1F7D501A5
:103000008D919C9149E150E060EA70E004960E9445
:103010004978D501ED91FC9111978B8980838A893C
:10302000818388E48283ED91FC918D8980A38C89D2
:1030300081A3D60115968C91159782A316968C9133
:1030400083A38A8184A38B8185A38C818295880F39
:10305000807E8E5F86A34801D501ED91FC91349668
:10306000D8018D91882311F08193FBCFD501ED918B
:10307000FC91D8018C91868B11968C91878B81E382
:10308000818F88E4828FF601F0804C896D898F2DC5
:103090000E94570EAB01BC01D5012D913C91E12C52
:1030A00000E011E08F2D0E94443D81116AC0D501DE
:1030B000ED91FC9180E091E0DF019C011D92215097
:1030C0003040E1F7D501ED91FC918FEF8183F6015E
:1030D000F0804A896B898F2D0E94570EAB01BC018D
:1030E000D5012D913C918F2D0E94443D811149C005
:1030F0008FE1EAEEFCE0DF011D928A95E9F740E1FD
:1031000050E060EA70E08DEE9CE00E944978EDEEC0
:10311000FCE0D4018D914D01882311F08193F9CF0A
:1031200086E88093EA0C8D898093EB0C8C898093E0
:10313000EC0C82E08093060D0E940110F601D08015
:103140004B816A818D2D0E94570E2C81F0E22F9FBA
:10315000A00111248A01550F220B330B0E5F1F4F64
:103160002F4F3F4FAB01BC01400F511F621F731F18
:10317000EE24E3940EE110E02AEE3CE08D2D0E9457
:10318000443D6596ECE00C94E177A2E0B0E0EBEC16
:10319000F8E10C94C8776C01DC0155968C91559739
:1031A0008A8356968C915697898357968D919C91D8
:1031B0005897019658969C938E935797ED91FC9152
:1031C00011971082ED91FC91119712968C911297A4
:1031D0008183AE014F5F5F4FBE016E5F7F4F54969C
:1031E0008C910E94CC15882321F01A82F090320E27
:1031F00013C0D601ED91FC9111978A818083ED91E6
:10320000FC911197498141836A8154968C910E9467
:103210002D1281112BC0F12CF601B48846896589E5
:103220008B2D0E94570EAB01BC01D6012D913C9114
:10323000EE24E39400E011E08B2D0E94443D182F12
:10324000811114C08A81F601858B8981868B82E089
:10325000838381E0828382858D7F8287C6010E947D
:10326000EA0DFF2039F08F2D0E94D730C6010E9451
:10327000470D11E0812F2296E9E00C94E4770F933B
:103280001F93CF93DF93D82FC1E000E010E08BE5D0
:10329000D89F90011124F901ED53F14F82818C17D1
:1032A000C0F0F901EE53F14F90819F77913049F0D2
:1032B000943019F4C83229F40AC0C23141F0C53340
:1032C00031F06C2F8D2F0E947B15080F191FCF5FD7
:1032D000F1F6C801DF91CF911F910F910895A1E1FF
:1032E000B0E0E5E7F9E10C94C1776C015B01142FC4
:1032F0007901DC01EC91BBE5EB9FF0011124EF5863
:10330000F14F83A981FD02C08AE19FC00023B9F07B
:10331000A901C6010E9422148091320E81111FC1A1
:10332000D701ED91FC918081882309F4D8C0D701A1
:103330001D96ED91FC911E97C7011995EDCFBE0129
:103340006F5F7F4FC6010E94AF16811108C18FE1E8
:10335000EAEEFCE0DF011D928A95E9F740E150E0DA
:1033600060EA70E08DEE9CE00E944978F501ADEED8
:10337000BCE08191882311F08D93FBCF1093EA0C70
:10338000F601B0806B2C712C2BE5B29EF00111245C
:10339000EE53F14F8081813011F001E029C012E03D
:1033A000612F8B2D0E947B15892B09F03FC01F5F79
:1033B0008BE5869DF001879DF00D1124ED53F14FB3
:1033C0008281181729F0112319F0123049F7C7C06C
:1033D00011E0E6CF102FD4016C91601B8B2D0E9461
:1033E0007B15892BD1F40195101614F401E0011B13
:1033F000402E002E000C55082BE5269DC001279D70
:10340000900D11249C012D53314F4901D901129681
:103410008C9190E048165906ECF2F401828190E01C
:103420004816590669F0F4011081101B00E0612F65
:103430008B2D0E94600E202F30E02817390740F0B6
:103440008091320E81118BC088E40E94D73087C0F2
:10345000402F612F8B2D0E94E711181614F00F5F7B
:10346000E6CF1093EB0C0093EC0C402F612FF6018C
:1034700080810E942D12811172C00E94011041E0D2
:10348000BE016E5F7F4FD6018C910E94AD0F8111FE
:1034900066C0F701828588608064828782E08383CA
:1034A00082838FE190E1908B878785EC98E1968706
:1034B00085878CE99EE0948783870190F081E02DD9
:1034C0008DE082838A819B81AC81F701818B928B15
:1034D000A38BD6018C91848B158B068B40C0F50194
:1034E000848D958DA68DF701818B928BA38B209176
:1034F000060D8091070D90E0982F8827820F911D6F
:103500000197908F878B82858B7F828792819F5FC7
:103510009383911104C08260F701828704C08D7F7C
:10352000D7011A968C9385EC98E1F70196878587E9
:103530008FE190E1908B87878CE99EE09487838769
:1035400082858860806482870E940110B7016F5E67
:103550007F4F41E0D70154968C910E94AD0F619648
:10356000E0E10C94DD77A0E0B0E0E9EBFAE10C9447
:10357000C7777B01EA0159012BE5829FC001112425
:10358000FC01ED53F14F6F0183818B01080F111D79
:1035900049E150E060EA70E0C8010E944978F80112
:1035A0009E012F5E3F4F8991882329F0C217D307D0
:1035B00011F08193F8CFF6018481D701A80FB11DD6
:1035C00085E0F50101900D928A95E1F7CDB7DEB760
:1035D000EAE00C94E377A0E0B0E0E1EFFAE10C94CC
:1035E000C977F82EEB016A018901E12C4E2D61E0CB
:1035F0008F2D0E942D12E39423E2E212F7CFB8013F
:1036000088E40E94890EE0912A09F0912B09A0819B
:10361000B1813BE5F39EF0011124ED53F14F82811E
:1036200018968C93E881F98180E091E0DF019C019C
:103630001D9221503040E1F7EE24E394E08282E2D3
:10364000818388E4828391E3D80113969C93139736
:1036500014968C93688179819801A6018F2D0E9420
:10366000B31AE881F981E0A2E881F981E1A2288119
:103670003981E12C00E011E040E051E060E070E0D1
:103680008F2D0E94443D811107C02881398142E27B
:1036900061E08F2D0E94A50ECDB7DEB7E8E00C9457
:1036A000E577A2E0B0E0E7E5FBE10C94CA77D82E1D
:1036B0008B017A0140E062E129833A830E942D1256
:1036C00041E062E18D2D0E942D12E0912A09F091D6
:1036D0002B090190F081E02D82E1808381E08183DC
:1036E00081E4828392E329813A81F901938384837F
:1036F000E0912A09F0912B0960817181A7018D2D3C
:103700000E94B31AA0912A09B0912B09ED91FC9166
:103710001197E755FF4F80EA8083ED91FC91E655C4
:10372000FF4F8083F8012081318141E062E18D2DDE
:103730000E94A50E2296E7E00C94E677CF93DF93E4
:10374000D82F0E94511BE0912A09F0912B0901907A
:10375000F081E02D80E88383C0E04C2F65E38D2F5E
:103760000E942D12CF5FC331C1F7DF91CF91089531
:10377000A0E0B0E0EEEBFBE10C94C977C82F6B0141
:103780007A018901D0E04D2F68E28C2F0E942D1222
:10379000DF5FD430C1F7E0912A09F0912B09019045
:1037A000F081E02DD8E2D083E0912A09F0912B0935
:1037B0000190F081E02D82E08183B80184E40E94D1
:1037C000890E69E28C2F0E947B15E0912A09F09105
:1037D0002B090190F081E02D1082E0912A09F091EF
:1037E0002B090190F081E02D8FEF8183B80184E4F3
:1037F0000E94890EE0912A09F0912B09828582604E
:103800008287D601ED91FC911197D08383E081836B
:1038100084E4828393E3F801938384836D917C91A4
:103820009801A7018C2F0E94B31AD6012D913C91CB
:10383000E12C00E011E040E058E166E070E08C2F00
:103840000E94443D811108C0F6012081318143E08E
:1038500068E28C2F0E94A50ECDB7DEB7E8E00C948D
:10386000E57780912A0990912B09009731F0DC01CE
:103870001F96ED91FC915097199580912809909190
:103880002909009731F0DC011F96ED91FC915097CA
:10389000199580E00895ACE0B0E0E1E5FCE10C941E
:1038A000BF77682E712C2BE5829FF0011124EF5811
:1038B000F14FDF01AF5ABF4F9C91913041F497A572
:1038C000913009F0DBC090A9913009F0D7C02A01EE
:1038D0001B01F82E0E94C10C6C01009709F4CEC0A8
:1038E000DC011A968C911A9788608F7B1A968C93BC
:1038F000C6010E94D90DD601ED91FC9180E091E0C6
:10390000DF019C011D9221503040E1F70E94311CE3
:10391000E0912A09F0912B098FEF818BE091280922
:10392000F0912909309709F0818B41145104D1F1AC
:10393000AA24A394B12C8BE5869DF001879DF00D00
:103940001124ED53F14F828190E08A159B0518F107
:10395000812C912C6A2D8F2D0E94600E881699065D
:10396000B0F4482D6A2D8F2D0E94570EAB01BC017B
:10397000D6012D913C91E12C00E011E08F2D0E94A9
:10398000443D81117BC0BFEF8B1A9B0AE3CFEFEF61
:10399000AE1ABE0AD0CFD2018C91888711968C9135
:1039A000898738C0F9828BE5869D8001879D100D3F
:1039B00011240D53114FF80180818E8381E08F8394
:1039C000BE01685F7F4FCE0101960E94BE1081113B
:1039D00055C0D8019C90A12CB12C692D8F2D0E942F
:1039E000600EA816B906B0F44A2D692D8F2D0E94DD
:1039F000570EAB01BC01F60120813181E12C00E0C2
:103A000011E08F2D0E94443D811138C0FFEFAF1AA5
:103A1000BF0AE3CF80EA8A8701E010E02BE5269D0C
:103A2000C001279D900D1124FC01ED53F14F22811F
:103A300030E020173107A8F0A12CB12C602F8F2D7A
:103A40000E94600EA816B90648F44A2D602F8F2DEB
:103A50000E9498122FEFA21AB20AF0CF0F5F1F4FE9
:103A6000DDCFFC01E653F14F0190F081E02D9E0186
:103A7000285F3F4FA101B6018F2D19952C96E2E1E9
:103A80000C94DB77A1E0B0E0E8E4FDE10C94C577AD
:103A90004C019B01DC019C91092F10E0BBE59B9F31
:103AA000C0011124FC01EF58F14FC3ACD4ACE5AC1C
:103AB000F6ACC114E6E5DE06E5E0EE06F10409F435
:103AC00046C0D0F4C1144BEAD40642E0E406F10447
:103AD000A1F1ABEACA16ADEADA06A2E0EA06F10401
:103AE00009F053C049E050E065EA75E08D53914F0D
:103AF0000E94237822E87EC0C114B0E8DB06BCE057
:103B0000EB06F10471F1E0E8CE16ECE8DE06ECE03D
:103B1000EE06F10481F1F6E5CF16FBE5DF06F5E0F0
:103B2000EF06F10491F549E050E06CE975E08D5342
:103B3000914F0E94237823E85DC049E050E065EA98
:103B400075E08D53914F0E94237822E053C049E0E5
:103B500050E06CE975E08D53914F0E94237823E08B
:103B600049C049E050E063E975E08D53914F0E94F0
:103B7000237824E03FC049E050E063E975E08D53CD
:103B8000914F0E94237824E835C0D701C601AA27A7
:103B9000BB27892B8A2B8B2B21F08FE40E94D730F7
:103BA00064C0C114D10443E0E406F10479F46EE288
:103BB00070E0C9010E947178DC0112962C91129775
:103BC000263321F413968C91843339F38BE5809F4F
:103BD0005001819FB00C112449E050E06AE875E083
:103BE000C5018D53914F0E942378F501EB53F14F9E
:103BF000E08221E080912A0990912B09892BB1F470
:103C000029830E949F0CFC0190932B0980932A0921
:103C10002981892B51F185E684838FEF818B88EC94
:103C20009EE0908B87878285806482878BE5809F6A
:103C3000F001819FF00D1124DF01AE53B14F2C93A1
:103C4000ED53F14F8081D40115968C9315978181A6
:103C500016968C93809127098F5F8093270927FF01
:103C600006C08FEF80930A0D02C081E001C080E0A2
:103C70002196ECE00C94E177CF93DF93EC01FB010C
:103C8000A081B1818D818C93A8818BE5A89FD00103
:103C90001124AE53B14F8C91A081B181813021F4B8
:103CA0008E8111968C9302C011961C928881848B10
:103CB00082852FEE33E1368725872CE93EE0348775
:103CC0002387846080648287CF010E94EF13DF9195
:103CD000CF91089580912A0990912B090E94470D58
:103CE00010922B0910922A09809128099091290994
:103CF0000E94470D10922909109228091092270955
:103D00000895CF93C82F80912A0990912B0900978D
:103D100079F0DC011F96ED91FC9150971995E09197
:103D20002A09F0912B0981898C1302C08FEF818BB6
:103D30008091280990912909009779F0DC011F965C
:103D4000ED91FC9150971995E0912809F09129097E
:103D500081898C1302C08FEF818B8091270981505C
:103D6000809327098823A1F080912A0990912B093B
:103D70000E94470D80912809909129090E94470DC2
:103D800010922B0910922A091092290910922809E1
:103D9000CF91089590E0209102012F7E209302019F
:103DA000992311F081FF05C020910201277F209304
:103DB000020140912D0F50912E0F465F5F4F2091D1
:103DC0002D0F30912E0F241B350B37FDF8CF20918E
:103DD00002012061209302012091020128602093BA
:103DE000020140912D0F50912E0F465F5F4F2091A1
:103DF0002D0F30912E0F241B350B37FDF8CF91304E
:103E000021F091E080FDC7CFCDCF08958F929F9292
:103E1000BF92CF92DF92EF92FF920F931F93CF93B7
:103E2000DF931F921F92CDB7DEB7B090320E109283
:103E3000320E85E00E946F0DF59A00E0E12CF12C26
:103E4000C12CD12C10E080912C09811708F460C09E
:103E5000A70160E070E084E399E00E94184E8111B0
:103E60000DC09E012F5F3F4F47E750E06EE37DE0BE
:103E700084E399E00E947A4B882321F061E00E945C
:103E8000F83186C089819A818737910520F02EE329
:103E90003DE000E019C0FC01E25CF24F1082892B8A
:103EA000B1F780912C098F3F21F4115010932C0908
:103EB00002C010922C09E12CF12C1FEF27C08A3090
:103EC00049F08A3309F401E0F90180812F5F3F4F07
:103ED0008D30A9F76F014F01808131968D30D9F374
:103EE0008A30C9F3E114F10461F448E050E06EEA6D
:103EF00075E08EE39DE00E941678892B11F4F59809
:103F00001150C4018E539D40E80EF91E1F5F9BCFD8
:103F1000F601108280912D099BE5899FF001112403
:103F2000EF58F14F21A932A92F59394011F00E94C1
:103F3000C63CA0912D09A0936F0EFBE5AF9FD00169
:103F40001124A456B14F86E0EEE2F9E001900D9203
:103F50008A95E1F701110AC080913E0D8F3231F050
:103F60008AE380933D0D0DE31DE002C00EE31DE0EA
:103F7000F59B03C0C8010E941D77C8010E9405235C
:103F80008091320E882331F0893421F0B092320EC4
:103F900080E001C081E00F900F90DF91CF911F91E1
:103FA0000F91FF90EF90DF90CF90BF909F908F90F8
:103FB0000895FF920F931F93CF93DF93EC018B0132
:103FC000F42EF2988091360990913709892B59F097
:103FD00084E399E00E940C4E8EE1E4E3F9E0DF0116
:103FE0001D928A95E9F7F80180818823D1F14981F2
:103FF0005A816B817C81A8818BE58A9FD001112435
:10400000AF58B14F56964D935D936D937C935997EE
:104010009881899FC001112421E0A80164E379E01F
:104020008F58914F0E941D4A882321F061E00E9421
:10403000F83117C087E0FE01ADE2B9E001900D92C2
:104040008A95E1F7FF2021F08FEF80932C0902C0C1
:1040500010922C090E94061F882319F083E00E9409
:10406000CA1ECDB7DEB7E5E00C94E87740E00E94C9
:10407000D91F0895A3E6B0E0E0E4F0E20C94CE7717
:104080008091360990913709892B09F0E1C063ECE2
:1040900075E088EE9CE00E942C7880916F0E9BE585
:1040A000899FF0011124E456F14F96E0ABE5B0E0B2
:1040B000AC0FBD1F119601900D929A95E1F76C9689
:1040C0008FAF6C9780912B0F81FF02C041E001C040
:1040D00040E068EE7CE0CE01855A9F4F0E94D91FD8
:1040E0008091360990913709892B09F0ABC08091F6
:1040F0002B0F82FFA3C066EB75E0CE01855B9F4F5F
:104100000E942C78A0964CAD5DAD6EAD7FADA097B2
:104110006C968FAD6C971BE5189FC00111249E0112
:10412000255C3F4F8F58914F0E94854F811186C06B
:104130006C968FAD6C97189FC00111242AE0AE01D8
:10414000455B5F4FBE016F5F7F4F8F58914F0E945D
:104150001D4A811173C080910201877F8093020103
:1041600088EE9CE09AAF89AF10E0BE01615E7F4FA0
:10417000CE01CB960E94B84F81114BC08CA58823ED
:1041800009F447C08FA184FDF0CFCE018C960E9428
:10419000B038823051F78091E80C811104C0BE0123
:1041A000645D7F4F02C068EE7CE0FB01019000205F
:1041B000E9F73197AF01461B570B9E012E593F4F30
:1041C000CE0101960E94884C882311F011E021C095
:1041D000A4968EAD9FADA497892BC1F38DE08CA7DB
:1041E0008AE08DA79E012E593F4F42E050E0BE016C
:1041F000645D7F4FCE0101960E94884C8111E6CF0D
:1042000011E0A4968EAD9FADA497892B09F0ADCF98
:10421000DDCFCE0101960E940C4E80910201886094
:1042200080930201112351F040E0BE01655B7F4F96
:10423000CE01855A9F4F0E94D91FF29A80E00E94BA
:10424000D73001C0F29A80912B0F10922B0F3AC0F9
:1042500080912B0F80FF10C080912C098F5F80937D
:104260002C0980912B0F8E7F80932B0F0E94061FAD
:10427000882341F182E024C080912B0F81FF10C080
:1042800080912C09815080932C0980912B0F8D7F78
:1042900080932B0F0E94061F8823A1F081E010C09D
:1042A00080912B0F82FF0EC010922C0980912B0F52
:1042B0008B7F80932B0F0E94061F882319F083E0C9
:1042C0000E94CA1ECD59DF4FE3E00C94EA778EE1DD
:1042D000E4E3F9E0DF011D928A95E9F7F298089589
:1042E0008091350D90E04AE750E0481B590B60E0A3
:1042F00070E0835C924F0E9449780895A6E0B0E098
:10430000E4E8F1E20C94C9770E9470216DE270E05C
:104310008DE39DE00E9450787C01892B09F4CBC08D
:1043200019821A821B821C826AE370E08DE39DE091
:104330000E9450789E838D83892B79F4EDE3FDE014
:1043400001900020E9F73197ED53FD40339708F4D1
:10435000B5C08FE39DE09E838D838D819E81019604
:104360009E838D83CE0101966C0110E0ED81FE816C
:1043700080818823D1F01430D9F0ED81FE818081D5
:10438000803221F43196FE83ED83F7CF8D31D1F366
:104390008C32C1F3882349F01F5FCE0105960E943D
:1043A000DA70D6018D936D01E1CF1F3F09F486C00D
:1043B000F7018181823531F0873521F0803509F0B0
:1043C0007AC055C089810E94B90D8C01892B11F4E6
:1043D00086E472C0D70111968C91823541F5F801BF
:1043E00061898BE5689FF0011124EF58F14F01A816
:1043F000F2A9E02D7096A591B4912C814B81C80152
:10440000FD01199580913D0D823461F481E0D80160
:1044100013968C931397ED91FC91119780811296CE
:104420008C934CC0F80113828FEF828347C0809138
:104430003D0D823441F4D801ED91FC911197139612
:104440008C9181508083F80161898BE5689FF00130
:104450001124EF58F14F01A8F2A9E02D7296A59111
:10446000B4912C814B81C801FD01199527C0898128
:104470000E94B90DFC01892B09F4AACF82898130F1
:10448000B9F08B81498193E6941B94830388F48966
:10449000E02D815048F0258936892115310511F428
:1044A00023893489F901F5CF448382858D7F828702
:1044B0008A81838303C08FE10E94D7302696E8E08B
:1044C0000C94E577A0E0B0E0E8E6F2E20C94C9775E
:1044D000E0905709F09058099E2D981B00915509BE
:1044E00010915609C62FD0E0692F70E0C61BD70B7C
:1044F0000C171D0708F4E8016E01DD24D091540962
:10450000E0915209F0915309808191816D5B724F66
:10451000A6018D0F911D0E944078CD0FC0935409C4
:10452000EC0CFD1CF0925809E09257090C191D097A
:1045300010935609009355090115110521F41092A5
:10454000530910925209CDB7DEB7E8E00C94E57735
:10455000CF93DF93EC018091330E811118C087ED6A
:1045600095E00E948E0B8D2F0E946C0B8C2F0E9469
:104570006C0B80ED95E00E948E0B809113020E94DF
:104580006C0B809112020E946C0B0E949D0B80911B
:10459000330E811104C0809159098093330E8091AC
:1045A000330E28E636E0F9013296E491EE23A9F0C5
:1045B0008E1310C0F90145915491C417D50751F4D9
:1045C000F901339645915491F90135968491FA0198
:1045D00019950CC02A5F3F4FE6CF409112025091CF
:1045E0001302652F772782E60E94F72F8FEF9FEF48
:1045F00090931302809312028091330E8093590995
:104600001092330EDF91CF910895A6E3B0E0EBE076
:10461000F3E20C94CD778C0121E0AE014B5C5F4F4F
:10462000BE01625D7F4F0E94EE6F81113FC010920C
:104630003B0E6DA97EA9FB018081882341F18F3556
:1046400029F4CE0101960E945B780AC09E012F5F7B
:104650003F4F40E2CE018E960E94B86F811126C076
:10466000EEA58BE5E89FF0011124EF58F14F01A86A
:10467000F2A9E02D7C9625913491BE016F5F7F4FAA
:10468000CE018E96F9011995811110C00BC06FE211
:1046900070E0C8010E945078892B21F487E20E94C3
:1046A000D73004C0CE018E960E94AF6EE696E4E04D
:1046B0000C94E977A6E7B0E0E0E6F3E20C94C77764
:1046C00080E00E94D7304091350D483729F480E2D0
:1046D0000E94D7300C94DD2E8091330E811107C0DB
:1046E00050E060E070E08DE39DE00E94A40B30910B
:1046F000350D3093360D332359F0E32FF0E0E45CB1
:10470000F24F80818D3021F48FEF830F8093350D30
:104710002091350D211105C08FE10E94D7300C94F6
:10472000DD2EE0913D0DE83511F40C94252E90918D
:104730003E0D943409F01FC10E94702180913D0DFF
:104740008D3439F0823509F444C0833409F00EC148
:1047500030C06AE370E08DE39DE00E945078892BC1
:1047600029F482E20E94D7300C94DD2E20E0AE01C5
:10477000425D5F4FBE016F5F7F4F8FE39DE00E9400
:10478000EE6F81110C94DD2EE9812BE5E29FF001A3
:104790001124EF58F14F01A8F2A9E02D7A96259146
:1047A00034916EA57FA5CE010196F90119950C945F
:1047B000DD2E8FE39DE00E940523F29902C00C9448
:1047C000DD2E61E070E080E090E00E9436200C94E5
:1047D000DD2E6FE270E08DE39DE00E945078892B22
:1047E00029F082E20E94D7300C94DD2E8FE39DE009
:1047F000E5969FAF8EAFE597CE018D589F4F0E94F3
:10480000D26EE5966EAD7FADE597DB019C919A3354
:1048100029F082E20E94D7300C94DD2EDE01A459EB
:10482000BF4F8D93E82EF12C1BE51E9DF0011F9DBF
:10483000F00D1124E456F14F86E001900D928A9517
:10484000E1F76F5F7F4F9E01225D3F4F46E0CE0153
:1048500084599F4F0E94B86F81110C94DD2EAD9644
:10486000EFADAD971E9FF0011124EF58F14F21A934
:1048700032A9245E3F4FF90145915491BE01625D1A
:104880007F4FCE0184599F4FFA01199581110C94E5
:10489000DD2EAD96EFADAD971E9FF0011124EF58C0
:1048A000F14F01A8F2A9E02D769625913491BE0131
:1048B00064597F4FCE01855A9F4FF9011995811197
:1048C0000C94DD2E6C96EFAD6C971E9FF0011124B9
:1048D000EF58F14F01A8F2A9E02D78962591349177
:1048E000BE016F5F7F4FCE01855A9F4FF901199529
:1048F0008F3F51F08091320E81110C94DD2E8FE3A9
:104900000E94D7300C94DD2E1E9DF0011F9DF00DEE
:104910001124E456F14F86E0ACE6B0E0AC0FBD1FC9
:10492000119601900D928A95E1F7AD96EFADAD9796
:104930001E9FF0011124EF58F14F01A8F2A9E02DBC
:10494000369625913491BE01625D7F4FCE01845928
:104950009F4FF90119958F3F11F40C94DD2E40E023
:10496000682F81E00E94F72F0C94DD2E8EE10E94CB
:10497000D7300C94DD2E4E2F50E0FA01E254F109AD
:10498000E431F10510F00C94D12E8827EE58FF4F3A
:104990008F4F0C949D770E947E210C94DD2E9035D4
:1049A00031F0903D61F580913F0D81500AC00E9429
:1049B00070218FE39DE09A838983CE0101960E9446
:1049C000D26E9091700E11E0180F891738F040E008
:1049D000612F8DE40E94F72F0C94DD2E80936F0ED3
:1049E000F29B06C061E070E080E090E00E9436201B
:1049F00040E0612F82E00E94F72F0C94DD2E0E9490
:104A000070216DE370E08DE39DE00E945078009787
:104A100049F4E7961FAE1EAEE7978EE10E94D730AD
:104A20000C94DD2E9C012F5F3F4FE7963FAF2EAFDA
:104A3000E797DC011C9220E0AE014D585F4FBE01AC
:104A4000625D7F4F8EE39DE00E94EE6F81110C94BA
:104A5000DD2EE5968EAD9FADE597FC0120812111FD
:104A600005C082E20E94D7300C94DD2E0E94C06EF9
:104A70008111D3CFE5966EAD7FADE597AE014F5F67
:104A80005F4F5A019A0140E2CE018E960E94B86FA4
:104A9000811105C08FE30E94D7300C94DD2E1816CB
:104AA00014F40C94DD2E80E00E94D7300E94C10CDB
:104AB0007C010E94C10C6C01E114F10411F40C940E
:104AC000DD2E892B11F40C94DD2EAE0144595F4F7D
:104AD0006CE2E7968EAD9FADE7970E94FB76E79676
:104AE0009FAF8EAFE79710E0E7968EAD9FADE7974B
:104AF000009709F42BC120E0AE014B585F4FBE0177
:104B0000655A7F4F0E94EE6F811120C1E7966EAD0E
:104B10007FADE797950140E2CE01855A9F4F0E94F5
:104B2000B86F811113C18A898770843001F5812F94
:104B30008B7F21F080E40E94D73008C16C96EFADE6
:104B40006C975BE5E59FF0011124EF58F14F01A848
:104B5000F2A9E02D3496A591B49101E020E0A701DF
:104B6000B501CE01855A9F4FFD01199517C014302C
:104B700009F36C96EFAD6C972BE5E29FF0011124E1
:104B8000EF58F14F01A8F2A9E02D25913491A7012A
:104B9000B501CE01855A9F4FF90119958091320ECA
:104BA0008111D4C011113DC01A8917708DE2D50151
:104BB0001D928A95E9F7E5966EAD7FADE59740E1E8
:104BC00050E0C5010E946278EEA51430B1F4BBE557
:104BD000EB9FF0011124EF58F14F01A8F2A9E02D4D
:104BE0003496A591B49101E0F7012581A601B501A4
:104BF000CE018E96FD01199514C02BE5E29FF001C0
:104C00001124EF58F14F01A8F2A9E02D3296A59199
:104C1000B49100E09601412FB501CE018E96FD01C1
:104C20001995D6011396EC91143021F4D7011596FD
:104C30000C9102C00E2F0195D70112968C911297FC
:104C400013969C91402F50E0282F30E0692F70E0A0
:104C5000261B370B2F5F3F4F241735071CF48F5F40
:104C6000082F091B202F30E08E2F90E040E051E00C
:104C7000481B590B4217530714F40E2F0195F601E8
:104C800020813181402F50E0D701ED91FC916E0FD2
:104C90007F1F820F931F0E944078C6010E94D90D8A
:104CA000F70183818150800F8383D60113969C91F5
:104CB0001397802F890F13968C9313978150129618
:104CC0008C93828585FF04C093818281981759F166
:104CD000F7018581882351F0D7011D96ED91FC9154
:104CE0001E97C7011995882349F030C0F7018381C9
:104CF00091E0980F93839281891771F3D6011596ED
:104D00008C911597811104C013968C91811189CFD4
:104D1000D6011D96ED91FC911E97C6011995882329
:104D200009F47FCF13C0C7010E94630D0E94C10C1C
:104D30007C01AE0144595F4F6CE280E090E00E943C
:104D4000FB76E7969FAF8EAFE797CECED7011F9643
:104D5000ED91FC915097C7011995C6010E94630D12
:104D60000C94DD2E80913F0D0E94B90DFC01892B22
:104D700029F486E40E94D7300C94DD2E828982309B
:104D800040F0948183E6891B84830388F489E02DB5
:104D9000948313828FEF82838091400D2091410D87
:104DA0003091420D4091430D5091440D90913E0D34
:104DB0009235F1F09735D9F1993409F058C06081F6
:104DC000718120E031E0DB01A9011D92415050408A
:104DD000E1F7408151816091410D0E94A0758823C7
:104DE00011F40C94DD2E8AE40E94D7300C94DD2E51
:104DF0009289923028F48EE40E94D7300C94DD2EF4
:104E00006081718101E00E946274882311F40C9426
:104E1000DD2E813029F484E10E94D7300C94DD2E00
:104E200040E0682F8AE40E94F72F0C94DD2E9289CF
:104E3000923008F36081718101E00E940775813032
:104E400051F010F40C94DD2E823051F48AE10E946E
:104E5000D7300C94DD2E89E10E94D7300C94DD2EE2
:104E600040E0682F8AE40E94F72F0C94DD2E8FE13A
:104E70000E94D7300C94DD2E233010F40C94DD2EDC
:104E80009D3221F480913F0D803521F08EE10E940A
:104E9000D73093C7233021F09091400D9F3F19F4F4
:104EA00090916F0E9F5F1092BB0C8EE18093BA0CB5
:104EB000EEECFDE0DF011D928A95E9F78DE080932D
:104EC000EC0D8091700E891708F477C7911108C016
:104ED0004FE150E06AE276E0CF010E9423786DC78F
:104EE000DD24DA94D90E0D2D10E0EBE5DE9ED00125
:104EF0001124AF58B14FD196ED90FC90D297FAE6BD
:104F0000EF16F5E0FF0629F4AF5ABF4F8C918F776B
:104F100001C081E08093CE0D82EE8093CF0D9093FF
:104F2000D00D40E150E060EA70E081ED9DE00E942C
:104F30004978F70138962591349168EE7CE08D2D03
:104F4000F9011995811139C7E8EEFCE0A1EDBDE04A
:104F50008191882311F08D93FBCF8BE5809FF00129
:104F6000819FF00D1124EF58F14F82859385A48520
:104F7000B585A093E10D9093E20D8093E30DA0A57C
:104F800046815781608571859A01AB0121503109B5
:104F900041095109B0E00E94B4778093E90D709304
:104FA000EA0D6093EB0D09C78091340D823031F02A
:104FB00040E062E185E10E94F72FFFC685E00E9494
:104FC0006F0DFBC680913F0D873509F0E4C0263098
:104FD00008F4F3C68091400DE090410DF12CFE2CB9
:104FE000EE24E80EF11CC090420DF7E7EF16F10435
:104FF00031F48091430D8F7180936D0EDEC6C70131
:1050000086509C41029708F4D8C622E0E21628E1B7
:10501000F20609F4D2C61092590920911202309179
:1050200013025091330E63E47DE0FB018E2F861B4B
:105030008C1510F54191C9018427282F2295282726
:10504000022E269526952025022E269520252770AE
:10505000082E892F269507942795902D8227069450
:10506000279590258227823AA8E39A0719F44036BB
:1050700009F458E09C01DACF309313022093120216
:105080005093330E8CE197E0FC013296D490DD20F2
:1050900039F1FC01459154912417350711F004961C
:1050A000F3CFD092330EFC01339625913491222315
:1050B000B9F03327220F331F220F331FF901E851B4
:1050C000F84F859194919093380E8093370EF901A3
:1050D000E651F84F859194919093350E8093340E5C
:1050E0008091520990915309892B09F463C66C2D64
:1050F000C7010E946222DD2009F43AC08091520962
:1051000090915309892B09F033C009E516E0F801A5
:1051100084918D1129C0319685919491909358096D
:1051200080935709F8013396E491F0E03196F093BB
:105130005609E0935509109254090E949F0CDC0116
:105140009093530980935209892B09F42EC61A961D
:105150008C911A9780641A968C931A97F80134965A
:10516000E4911496EC9321C60B5F1F4F8111CFCFB2
:105170008091330E811121C685EE95E00E948E0B41
:10518000809113020E946C0B809112020E946C0BA2
:105190000E949D0B12C6853479F4253008F40DC6A3
:1051A0002091400D8091410D90E0982F8827820F2B
:1051B000911D0E94A82201C6823509F067CE2630D3
:1051C00008F4FBC58091400DE090410DF12CFE2CC0
:1051D000EE24E80EF11CF7FE8CC08091BD0D8823F3
:1051E00009F487C080916F0E1BE5189FC001112440
:1051F0008F58914FDC019B964D915D916D917C9103
:105200009E97FC01468B578B608F718F21E04DEB91
:105210005DE06AE579E00E941D4A811113C0F0E863
:10522000FF1A8091620990916309A0916409B0917D
:105230006509811520E89207A105B10570F5EFE336
:10524000FE222BC080916F0E189FC00111248F5831
:10525000914FDC0156961D921D921D921C925997FA
:1052600021E04DEB5DE06AE579E00E941D4A88236C
:10527000B1F21092870E1092880E1092890E109241
:105280008A0E21E04DEB5DE06AE579E081E79EE082
:105290000E941D4A81112DC0C2CFAC01BD015F73B8
:1052A00066277727452B462B472B19F09F73E80E6F
:1052B000F91EA70160E070E08AE599E00E94184EAF
:1052C000811117C00091420D053608F004E610E088
:1052D0009E012F5F3F4FA8016EEC7DE08AE599E0CB
:1052E0000E947A4B811105C089819A8180179107AC
:1052F000C1F089E496E0FC01259134912115310536
:1053000081F02E153F0559F4FC013296E491E093AB
:10531000CE0DFC013396E491E093CF0D02C00496CC
:10532000EACF8EEC9DE09093B90C8093B80C10926C
:10533000BB0C8091420D81508093BA0C3EC50E94F7
:1053400070218EE39DE09A838983CE0101960E94AD
:10535000D26E182F6AE370E08DE39DE00E945078D2
:105360009C0101969A838983232B21F482E20E9477
:10537000D73023C56CE270E00E945078AC010097F2
:1053800019F0DC011D92AD01BBE51B9FF00111245A
:10539000EF58F14F01A8F2A9E02D749625913491B0
:1053A00069817A81812FF901199507C53093350DEF
:1053B0000E9470218091350D823008F4DACC809102
:1053C0003E0D8F700E94B90D8C01009709F4D1CC6D
:1053D000DC011B96ED91FC911C97309709F49CC958
:1053E00015964C91442359F18091350D823068F027
:1053F00020913F0D30E0823051F09091400D392BDB
:10540000833029F05091410D03C021E030E051E09C
:10541000451720F483E30E94D730CFC4211531050E
:1054200011F02150310951115150A42FB0E00E94C8
:10543000A577252FAB01BC01C8011995BEC44091C9
:105440003F0D5091400D6091410D7091420D20E053
:105450001995B3C40E9470216DE370E08DE39DE067
:105460000E945078009741F4E5961FAE1EAEE59776
:105470008EE10E94D730A1C49C012F5F3F4FE5967B
:105480003FAF2EAFE597FC01108220E0AE014459FA
:105490005F4FBE01625D7F4F8EE39DE00E94EE6F25
:1054A00081118BC420E0AE014D585F4FBE01655A9B
:1054B0007F4FE5968EAD9FADE5970E94EE6F81110F
:1054C0007CC446E050E0BE01615D7F4F8BE590E01B
:1054D0008C0F9D1F01960E943378892B21F08EE35B
:1054E0000E94D7306AC4AE968EAD9FADAE970E9433
:1054F000C06E8111BDCFAE966EAD7FADAE97DB01B4
:105500008C91811104C082E20E94D73056C49E0162
:105510002F5F3F4F40E2CE018E960E94B86F8111FF
:1055200004C08FE30E94D73048C418160CF445C459
:1055300080E00E94D730E5966EAD7FADE5979E0185
:105540002F5F3F4F40E2CE01855A9F4F0E94B86FB8
:10555000811133C46C96EFAD6C97BBE5EB9FF00106
:105560001124EF58F14F01A8F2A9E02D7E96259164
:105570003491AE964EAD5FADAE97BE016F5F7F4F7B
:10558000CE01855A9F4FF901199517C4233019F49C
:105590009D3209F4C1C80E947021AE0144595F4F89
:1055A0006CE28EE39DE00E94FB76209102012F7E4B
:1055B0002093020110E0009709F458C020E0AE01EA
:1055C000455A5F4FBE01625D7F4F0E94EE6FEEA5B0
:1055D0002BE5E29FF0011124EF58F14F01A8F2A949
:1055E000E02D769625913491BE01625D7F4F87E86C
:1055F0009BE0F90119958111E0C36D966EAD7FAD09
:105600006D97AE014F5F5F4F7A0100E220E030E01E
:1056100040E050E087E89BE00E945B6F87FD1DC083
:105620008111CBC38A898770863039F3EEA55BE59B
:10563000E59FF0011124EF58F14F01A8F2A9E02DE8
:10564000369625913491B701CE018E96F9011995C0
:105650008F3F09F4B2C3180FD0CFAE0144595F4F4A
:105660006CE280E090E00E94FB76A5CF40E0612FE5
:1056700081E00E94F72FA1C39091280F992309F48C
:1056800005CC80913F0D823509F010C1923021F098
:105690008FE10E94D73091C3CE0101960E944B0941
:1056A0002B81822F6CE00E944777092F911101C056
:1056B0000CE01091400D123409F49EC020F4113416
:1056C00009F454C0EFC0143409F4CAC0193409F005
:1056D000E9C087E18093BA0C8E8114E6612F0E94A5
:1056E000477763E1680F8EEC9DE00E94D4769C01C1
:1056F0008E81612F0E944777692FC9010E94D4765D
:105700001DE2DC011C936D816F5F01960E94D476CF
:10571000FC0110836C8101960E94D47624E5DC01A3
:105720002C936B8101960E94D4761AE3FC011083BE
:105730006A8101960E94D476DC011C9369810196EE
:105740000E94D47620E2FC0120836F81F4E06F9FF9
:10575000B0011124635F794F43E050E082EE9DE099
:105760000E9423788DE08093E50D27C389E1809323
:10577000BA0C47E150E066EF75E082ED9DE00E94D3
:1057800023782F81F4E02F9F90011124B901635FEA
:10579000794F44E050E08EEC9DE00E9423786D81CB
:1057A0006F5F83ED9DE00E94D4766C8186ED9DE075
:1057B0000E94D4768E8164E60E944777692F89ED36
:1057C0009DE00E94D476602F8CED9DE00E94D476FF
:1057D0006A818FED9DE00E94D476698182EE9DE022
:1057E0000E94D4768B818C3018F41093E50DE5C2BD
:1057F00080E58093E50DE1C288E08093BA0C8F814B
:105800008093CE0D8E8164E60E944777892F0E9497
:10581000F2768093CF0D8D818F5F0E94F276809318
:10582000D00D8C810E94F2768093D10D802F0E9442
:10583000F2768093D20D8A810E94F2768093D30D06
:1058400089810E94F2768093D40D81E09B819C3007
:1058500008F480E08093D50D8DE08093D60DADC225
:1058600088E08093BA0C8F818093CE0D8E818093D7
:10587000CF0D9D819F5F9093D00D8C818093D10D32
:105880000093D20D8A818093D30D89818093D40DAA
:1058900091E02C3008F490E09093D50D8DE080934A
:1058A000D60D8BC28EE10E94D73087C2873509F0B2
:1058B000EDCA8091400D823439F118F4813441F001
:1058C000E6C0843409F447C0893409F469C0DFC0F4
:1058D0002B3120F48FE10E94D7306FC26DE0E62EAD
:1058E00066E0F62E10E042E050E0B70181E49DE072
:1058F0000E941678892B09F4CEC01F5F24E0E20EC7
:10590000F11C173081F7E6CF2C3020F38091410D48
:105910008F838091420D0E94E9768E838091430DA2
:105920000E94E9768D838091440D0E94E9768C83F4
:105930008091450D0E94E9768C3011F08B8301C077
:105940001B828091460D0E94E9768A838091470DE3
:105950000E94E9761BC02C3008F4BCCF8091410D29
:105960008F838091420D8E838091430D8D83809132
:10597000440D8C838091450D8C3011F08B8301C0D8
:105980001B828091460D8A838091470D8983809187
:10599000480D882309F4C8C08B81845F8B83C4C001
:1059A000273108F497CF81E49DE09FA78EA7CE0111
:1059B0008E960E94DA708C568E838EA59FA50196D6
:1059C0009FA78EA7CE018E960E94DA708D838EA53A
:1059D0009FA501969FA78EA7CE018E960E94DA7092
:1059E0008C838EA59FA501969FA78EA7CE018E962C
:1059F0000E94DA708B838EA59FA501969FA78EA724
:105A0000CE018E960E94DA708A838EA59FA501969C
:105A10009FA78EA7CE018E960E94DA7089830C8193
:105A20001D812E8130E0F901E459F84F133018F44C
:105A3000AF01319703C0A9014659584F9F013695D0
:105A4000279536952795CF0160E971E00E9453773D
:105A5000260F371F2C5F3F4FCF0164E670E00E9496
:105A60005377261B370B67E1169FC001112469E0AD
:105A700070E00E946777400FCB01840F911D820F69
:105A8000931F67E070E00E9453778F834DC08EE1D3
:105A90000E94D73092C11F8386E49DE09FA78EA706
:105AA000CE018E960E94DA708D838EA59FA50196F9
:105AB0009FA78EA7CE018E960E94DA708C838EA54A
:105AC0009FA501969FA78EA7CE018E960E94DA70A1
:105AD0008E838EA59FA501969FA78EA7CE018E9639
